{
  "contractName": "DonationContract",
  "abi": [
    {
      "inputs": [
        {
          "internalType": "bytes32",
          "name": "name",
          "type": "bytes32"
        },
        {
          "internalType": "bytes32",
          "name": "email",
          "type": "bytes32"
        },
        {
          "internalType": "bytes32",
          "name": "mobile",
          "type": "bytes32"
        }
      ],
      "stateMutability": "nonpayable",
      "type": "constructor"
    },
    {
      "anonymous": false,
      "inputs": [
        {
          "indexed": false,
          "internalType": "uint256[]",
          "name": "_hospitals",
          "type": "uint256[]"
        },
        {
          "indexed": false,
          "internalType": "uint256[]",
          "name": "_users",
          "type": "uint256[]"
        },
        {
          "components": [
            {
              "internalType": "uint256",
              "name": "id",
              "type": "uint256"
            },
            {
              "internalType": "bytes32",
              "name": "name",
              "type": "bytes32"
            },
            {
              "internalType": "bytes32",
              "name": "hospital_type",
              "type": "bytes32"
            },
            {
              "internalType": "bytes32",
              "name": "registration_number",
              "type": "bytes32"
            },
            {
              "internalType": "bytes32",
              "name": "address_line",
              "type": "bytes32"
            },
            {
              "internalType": "bytes32",
              "name": "state",
              "type": "bytes32"
            },
            {
              "internalType": "bytes32",
              "name": "district",
              "type": "bytes32"
            },
            {
              "internalType": "bytes32",
              "name": "town",
              "type": "bytes32"
            },
            {
              "internalType": "uint256",
              "name": "pincode",
              "type": "uint256"
            },
            {
              "internalType": "bytes32",
              "name": "telephone",
              "type": "bytes32"
            },
            {
              "internalType": "bytes32",
              "name": "mobile",
              "type": "bytes32"
            },
            {
              "internalType": "bytes32",
              "name": "emergency_mobile",
              "type": "bytes32"
            },
            {
              "internalType": "bytes32",
              "name": "longitude",
              "type": "bytes32"
            },
            {
              "internalType": "bytes32",
              "name": "latitude",
              "type": "bytes32"
            }
          ],
          "indexed": false,
          "internalType": "struct DonationContract.Hospital[]",
          "name": "_matchedHospitals",
          "type": "tuple[]"
        },
        {
          "components": [
            {
              "internalType": "uint256",
              "name": "id",
              "type": "uint256"
            },
            {
              "internalType": "bytes32",
              "name": "organ_name",
              "type": "bytes32"
            },
            {
              "internalType": "uint256",
              "name": "valid_time",
              "type": "uint256"
            }
          ],
          "indexed": false,
          "internalType": "struct DonationContract.Organ[]",
          "name": "_matchedOrgans",
          "type": "tuple[]"
        }
      ],
      "name": "DonerDemise",
      "type": "event"
    },
    {
      "anonymous": false,
      "inputs": [
        {
          "components": [
            {
              "internalType": "address",
              "name": "id",
              "type": "address"
            },
            {
              "internalType": "bytes32",
              "name": "name",
              "type": "bytes32"
            },
            {
              "internalType": "bytes32",
              "name": "email",
              "type": "bytes32"
            },
            {
              "internalType": "bytes32",
              "name": "mobile",
              "type": "bytes32"
            },
            {
              "internalType": "bytes32",
              "name": "role",
              "type": "bytes32"
            },
            {
              "internalType": "bool",
              "name": "verified",
              "type": "bool"
            },
            {
              "internalType": "uint256",
              "name": "hospital_id",
              "type": "uint256"
            }
          ],
          "indexed": false,
          "internalType": "struct DonationContract.User",
          "name": "_user",
          "type": "tuple"
        },
        {
          "components": [
            {
              "internalType": "uint256",
              "name": "id",
              "type": "uint256"
            },
            {
              "internalType": "bytes32",
              "name": "name",
              "type": "bytes32"
            },
            {
              "internalType": "bytes32",
              "name": "hospital_type",
              "type": "bytes32"
            },
            {
              "internalType": "bytes32",
              "name": "registration_number",
              "type": "bytes32"
            },
            {
              "internalType": "bytes32",
              "name": "address_line",
              "type": "bytes32"
            },
            {
              "internalType": "bytes32",
              "name": "state",
              "type": "bytes32"
            },
            {
              "internalType": "bytes32",
              "name": "district",
              "type": "bytes32"
            },
            {
              "internalType": "bytes32",
              "name": "town",
              "type": "bytes32"
            },
            {
              "internalType": "uint256",
              "name": "pincode",
              "type": "uint256"
            },
            {
              "internalType": "bytes32",
              "name": "telephone",
              "type": "bytes32"
            },
            {
              "internalType": "bytes32",
              "name": "mobile",
              "type": "bytes32"
            },
            {
              "internalType": "bytes32",
              "name": "emergency_mobile",
              "type": "bytes32"
            },
            {
              "internalType": "bytes32",
              "name": "longitude",
              "type": "bytes32"
            },
            {
              "internalType": "bytes32",
              "name": "latitude",
              "type": "bytes32"
            }
          ],
          "indexed": false,
          "internalType": "struct DonationContract.Hospital",
          "name": "_hospital",
          "type": "tuple"
        }
      ],
      "name": "Register",
      "type": "event"
    },
    {
      "anonymous": false,
      "inputs": [
        {
          "components": [
            {
              "internalType": "uint256",
              "name": "id",
              "type": "uint256"
            },
            {
              "internalType": "bytes32",
              "name": "fname",
              "type": "bytes32"
            },
            {
              "internalType": "bytes32",
              "name": "lname",
              "type": "bytes32"
            },
            {
              "internalType": "bytes32",
              "name": "email",
              "type": "bytes32"
            },
            {
              "internalType": "bytes32",
              "name": "dob",
              "type": "bytes32"
            },
            {
              "internalType": "uint256",
              "name": "mobile",
              "type": "uint256"
            },
            {
              "internalType": "uint256",
              "name": "uidai",
              "type": "uint256"
            },
            {
              "internalType": "uint256",
              "name": "age",
              "type": "uint256"
            },
            {
              "internalType": "uint256",
              "name": "weight",
              "type": "uint256"
            },
            {
              "internalType": "uint256",
              "name": "height",
              "type": "uint256"
            },
            {
              "internalType": "uint256",
              "name": "bmi",
              "type": "uint256"
            },
            {
              "internalType": "bytes32",
              "name": "blood_group",
              "type": "bytes32"
            },
            {
              "internalType": "bytes32",
              "name": "gender",
              "type": "bytes32"
            },
            {
              "internalType": "bytes32",
              "name": "address_line",
              "type": "bytes32"
            },
            {
              "internalType": "bytes32",
              "name": "state",
              "type": "bytes32"
            },
            {
              "internalType": "bytes32",
              "name": "district",
              "type": "bytes32"
            },
            {
              "internalType": "bytes32",
              "name": "postal_code",
              "type": "bytes32"
            },
            {
              "internalType": "bool",
              "name": "demise",
              "type": "bool"
            },
            {
              "internalType": "uint256",
              "name": "register_hospital_id",
              "type": "uint256"
            },
            {
              "internalType": "uint256",
              "name": "demise_hospital_id",
              "type": "uint256"
            }
          ],
          "indexed": false,
          "internalType": "struct DonationContract.Doner",
          "name": "_doner",
          "type": "tuple"
        }
      ],
      "name": "Register",
      "type": "event"
    },
    {
      "anonymous": false,
      "inputs": [
        {
          "components": [
            {
              "internalType": "uint256",
              "name": "id",
              "type": "uint256"
            },
            {
              "internalType": "bytes32",
              "name": "organ_name",
              "type": "bytes32"
            },
            {
              "internalType": "uint256",
              "name": "valid_time",
              "type": "uint256"
            }
          ],
          "indexed": false,
          "internalType": "struct DonationContract.Organ",
          "name": "_organ",
          "type": "tuple"
        }
      ],
      "name": "Register",
      "type": "event"
    },
    {
      "anonymous": false,
      "inputs": [
        {
          "indexed": false,
          "internalType": "uint256",
          "name": "id",
          "type": "uint256"
        },
        {
          "components": [
            {
              "internalType": "uint256",
              "name": "id",
              "type": "uint256"
            },
            {
              "internalType": "bytes32",
              "name": "fname",
              "type": "bytes32"
            },
            {
              "internalType": "bytes32",
              "name": "lname",
              "type": "bytes32"
            },
            {
              "internalType": "bytes32",
              "name": "gender",
              "type": "bytes32"
            },
            {
              "internalType": "bytes32",
              "name": "dob",
              "type": "bytes32"
            },
            {
              "internalType": "uint256",
              "name": "age",
              "type": "uint256"
            },
            {
              "internalType": "bytes32",
              "name": "email",
              "type": "bytes32"
            },
            {
              "internalType": "uint256",
              "name": "mobile",
              "type": "uint256"
            },
            {
              "internalType": "uint256",
              "name": "uidai",
              "type": "uint256"
            },
            {
              "internalType": "uint256",
              "name": "weight",
              "type": "uint256"
            },
            {
              "internalType": "uint256",
              "name": "height",
              "type": "uint256"
            },
            {
              "internalType": "uint256",
              "name": "bmi",
              "type": "uint256"
            },
            {
              "internalType": "bytes32",
              "name": "blood_group",
              "type": "bytes32"
            },
            {
              "internalType": "bytes32",
              "name": "address_line",
              "type": "bytes32"
            },
            {
              "internalType": "bytes32",
              "name": "state",
              "type": "bytes32"
            },
            {
              "internalType": "bytes32",
              "name": "district",
              "type": "bytes32"
            },
            {
              "internalType": "bytes32",
              "name": "postal_code",
              "type": "bytes32"
            },
            {
              "internalType": "uint256",
              "name": "register_hospital_id",
              "type": "uint256"
            }
          ],
          "indexed": false,
          "internalType": "struct DonationContract.Requestor",
          "name": "_requestor",
          "type": "tuple"
        }
      ],
      "name": "Register",
      "type": "event"
    },
    {
      "anonymous": false,
      "inputs": [
        {
          "components": [
            {
              "internalType": "uint256",
              "name": "id",
              "type": "uint256"
            },
            {
              "internalType": "uint256",
              "name": "doner_map_id",
              "type": "uint256"
            },
            {
              "internalType": "uint256",
              "name": "organ_map_id",
              "type": "uint256"
            },
            {
              "internalType": "bytes32",
              "name": "blood_group",
              "type": "bytes32"
            },
            {
              "internalType": "uint256",
              "name": "time",
              "type": "uint256"
            },
            {
              "internalType": "bool",
              "name": "available",
              "type": "bool"
            }
          ],
          "indexed": false,
          "internalType": "struct DonationContract.DonerOrgans",
          "name": "_donerOrgans",
          "type": "tuple"
        }
      ],
      "name": "Register",
      "type": "event"
    },
    {
      "anonymous": false,
      "inputs": [
        {
          "components": [
            {
              "internalType": "uint256",
              "name": "id",
              "type": "uint256"
            },
            {
              "internalType": "uint256",
              "name": "requestor_map_id",
              "type": "uint256"
            },
            {
              "internalType": "uint256",
              "name": "organ_map_id",
              "type": "uint256"
            },
            {
              "internalType": "bytes32",
              "name": "blood_group",
              "type": "bytes32"
            },
            {
              "internalType": "bool",
              "name": "transplanted",
              "type": "bool"
            }
          ],
          "indexed": false,
          "internalType": "struct DonationContract.RequestorOrgans",
          "name": "_requestorOrgans",
          "type": "tuple"
        }
      ],
      "name": "Register",
      "type": "event"
    },
    {
      "anonymous": false,
      "inputs": [
        {
          "components": [
            {
              "internalType": "uint256",
              "name": "id",
              "type": "uint256"
            },
            {
              "internalType": "uint256",
              "name": "requestor_organ_map_id",
              "type": "uint256"
            },
            {
              "internalType": "uint256",
              "name": "doner_organ_map_id",
              "type": "uint256"
            },
            {
              "internalType": "uint256",
              "name": "doner_map_id",
              "type": "uint256"
            },
            {
              "internalType": "uint256",
              "name": "requestor_map_id",
              "type": "uint256"
            }
          ],
          "indexed": false,
          "internalType": "struct DonationContract.OrganRequest",
          "name": "_organ_request",
          "type": "tuple"
        }
      ],
      "name": "RequestForOrgan",
      "type": "event"
    },
    {
      "anonymous": false,
      "inputs": [
        {
          "indexed": false,
          "internalType": "address",
          "name": "_address",
          "type": "address"
        }
      ],
      "name": "UserVerified",
      "type": "event"
    },
    {
      "inputs": [],
      "name": "getHospitals",
      "outputs": [
        {
          "components": [
            {
              "internalType": "uint256",
              "name": "id",
              "type": "uint256"
            },
            {
              "internalType": "bytes32",
              "name": "name",
              "type": "bytes32"
            },
            {
              "internalType": "bytes32",
              "name": "hospital_type",
              "type": "bytes32"
            },
            {
              "internalType": "bytes32",
              "name": "registration_number",
              "type": "bytes32"
            },
            {
              "internalType": "bytes32",
              "name": "address_line",
              "type": "bytes32"
            },
            {
              "internalType": "bytes32",
              "name": "state",
              "type": "bytes32"
            },
            {
              "internalType": "bytes32",
              "name": "district",
              "type": "bytes32"
            },
            {
              "internalType": "bytes32",
              "name": "town",
              "type": "bytes32"
            },
            {
              "internalType": "uint256",
              "name": "pincode",
              "type": "uint256"
            },
            {
              "internalType": "bytes32",
              "name": "telephone",
              "type": "bytes32"
            },
            {
              "internalType": "bytes32",
              "name": "mobile",
              "type": "bytes32"
            },
            {
              "internalType": "bytes32",
              "name": "emergency_mobile",
              "type": "bytes32"
            },
            {
              "internalType": "bytes32",
              "name": "longitude",
              "type": "bytes32"
            },
            {
              "internalType": "bytes32",
              "name": "latitude",
              "type": "bytes32"
            }
          ],
          "internalType": "struct DonationContract.Hospital[]",
          "name": "_hospital",
          "type": "tuple[]"
        }
      ],
      "stateMutability": "view",
      "type": "function",
      "constant": true
    },
    {
      "inputs": [],
      "name": "getOrgans",
      "outputs": [
        {
          "components": [
            {
              "internalType": "uint256",
              "name": "id",
              "type": "uint256"
            },
            {
              "internalType": "bytes32",
              "name": "organ_name",
              "type": "bytes32"
            },
            {
              "internalType": "uint256",
              "name": "valid_time",
              "type": "uint256"
            }
          ],
          "internalType": "struct DonationContract.Organ[]",
          "name": "",
          "type": "tuple[]"
        }
      ],
      "stateMutability": "view",
      "type": "function",
      "constant": true
    },
    {
      "inputs": [
        {
          "internalType": "uint256",
          "name": "_id",
          "type": "uint256"
        },
        {
          "internalType": "address",
          "name": "_add",
          "type": "address"
        }
      ],
      "name": "getRequestorOrgans",
      "outputs": [
        {
          "components": [
            {
              "components": [
                {
                  "internalType": "uint256",
                  "name": "id",
                  "type": "uint256"
                },
                {
                  "internalType": "uint256",
                  "name": "requestor_map_id",
                  "type": "uint256"
                },
                {
                  "internalType": "uint256",
                  "name": "organ_map_id",
                  "type": "uint256"
                },
                {
                  "internalType": "bytes32",
                  "name": "blood_group",
                  "type": "bytes32"
                },
                {
                  "internalType": "bool",
                  "name": "transplanted",
                  "type": "bool"
                }
              ],
              "internalType": "struct DonationContract.RequestorOrgans",
              "name": "requestorOrgans",
              "type": "tuple"
            },
            {
              "components": [
                {
                  "internalType": "uint256",
                  "name": "id",
                  "type": "uint256"
                },
                {
                  "internalType": "uint256",
                  "name": "doner_map_id",
                  "type": "uint256"
                },
                {
                  "internalType": "uint256",
                  "name": "organ_map_id",
                  "type": "uint256"
                },
                {
                  "internalType": "bytes32",
                  "name": "blood_group",
                  "type": "bytes32"
                },
                {
                  "internalType": "uint256",
                  "name": "time",
                  "type": "uint256"
                },
                {
                  "internalType": "bool",
                  "name": "available",
                  "type": "bool"
                }
              ],
              "internalType": "struct DonationContract.DonerOrgans[]",
              "name": "matchOrgans",
              "type": "tuple[]"
            },
            {
              "components": [
                {
                  "internalType": "uint256",
                  "name": "id",
                  "type": "uint256"
                },
                {
                  "internalType": "bytes32",
                  "name": "name",
                  "type": "bytes32"
                },
                {
                  "internalType": "bytes32",
                  "name": "hospital_type",
                  "type": "bytes32"
                },
                {
                  "internalType": "bytes32",
                  "name": "registration_number",
                  "type": "bytes32"
                },
                {
                  "internalType": "bytes32",
                  "name": "address_line",
                  "type": "bytes32"
                },
                {
                  "internalType": "bytes32",
                  "name": "state",
                  "type": "bytes32"
                },
                {
                  "internalType": "bytes32",
                  "name": "district",
                  "type": "bytes32"
                },
                {
                  "internalType": "bytes32",
                  "name": "town",
                  "type": "bytes32"
                },
                {
                  "internalType": "uint256",
                  "name": "pincode",
                  "type": "uint256"
                },
                {
                  "internalType": "bytes32",
                  "name": "telephone",
                  "type": "bytes32"
                },
                {
                  "internalType": "bytes32",
                  "name": "mobile",
                  "type": "bytes32"
                },
                {
                  "internalType": "bytes32",
                  "name": "emergency_mobile",
                  "type": "bytes32"
                },
                {
                  "internalType": "bytes32",
                  "name": "longitude",
                  "type": "bytes32"
                },
                {
                  "internalType": "bytes32",
                  "name": "latitude",
                  "type": "bytes32"
                }
              ],
              "internalType": "struct DonationContract.Hospital[]",
              "name": "matchHospital",
              "type": "tuple[]"
            }
          ],
          "internalType": "struct DonationContract.RequestMatchOrgans[]",
          "name": "",
          "type": "tuple[]"
        }
      ],
      "stateMutability": "view",
      "type": "function",
      "constant": true
    },
    {
      "inputs": [],
      "name": "getRequestorOrgans",
      "outputs": [
        {
          "components": [
            {
              "internalType": "uint256",
              "name": "id",
              "type": "uint256"
            },
            {
              "internalType": "uint256",
              "name": "requestor_map_id",
              "type": "uint256"
            },
            {
              "internalType": "uint256",
              "name": "organ_map_id",
              "type": "uint256"
            },
            {
              "internalType": "bytes32",
              "name": "blood_group",
              "type": "bytes32"
            },
            {
              "internalType": "bool",
              "name": "transplanted",
              "type": "bool"
            }
          ],
          "internalType": "struct DonationContract.RequestorOrgans[]",
          "name": "",
          "type": "tuple[]"
        }
      ],
      "stateMutability": "view",
      "type": "function",
      "constant": true
    },
    {
      "inputs": [
        {
          "internalType": "uint256",
          "name": "_requestor_id",
          "type": "uint256"
        },
        {
          "internalType": "uint256",
          "name": "_organ_id",
          "type": "uint256"
        }
      ],
      "name": "registerOrganForRequestor",
      "outputs": [],
      "stateMutability": "nonpayable",
      "type": "function"
    },
    {
      "inputs": [],
      "name": "getDonerOrgans",
      "outputs": [
        {
          "components": [
            {
              "internalType": "uint256",
              "name": "id",
              "type": "uint256"
            },
            {
              "internalType": "uint256",
              "name": "doner_map_id",
              "type": "uint256"
            },
            {
              "internalType": "uint256",
              "name": "organ_map_id",
              "type": "uint256"
            },
            {
              "internalType": "bytes32",
              "name": "blood_group",
              "type": "bytes32"
            },
            {
              "internalType": "uint256",
              "name": "time",
              "type": "uint256"
            },
            {
              "internalType": "bool",
              "name": "available",
              "type": "bool"
            }
          ],
          "internalType": "struct DonationContract.DonerOrgans[]",
          "name": "",
          "type": "tuple[]"
        }
      ],
      "stateMutability": "view",
      "type": "function",
      "constant": true
    },
    {
      "inputs": [
        {
          "internalType": "uint256",
          "name": "_id",
          "type": "uint256"
        }
      ],
      "name": "getDonerOrgans",
      "outputs": [
        {
          "components": [
            {
              "internalType": "uint256",
              "name": "id",
              "type": "uint256"
            },
            {
              "internalType": "uint256",
              "name": "doner_map_id",
              "type": "uint256"
            },
            {
              "internalType": "uint256",
              "name": "organ_map_id",
              "type": "uint256"
            },
            {
              "internalType": "bytes32",
              "name": "blood_group",
              "type": "bytes32"
            },
            {
              "internalType": "uint256",
              "name": "time",
              "type": "uint256"
            },
            {
              "internalType": "bool",
              "name": "available",
              "type": "bool"
            }
          ],
          "internalType": "struct DonationContract.DonerOrgans[]",
          "name": "",
          "type": "tuple[]"
        }
      ],
      "stateMutability": "view",
      "type": "function",
      "constant": true
    },
    {
      "inputs": [
        {
          "internalType": "uint256",
          "name": "_doner_id",
          "type": "uint256"
        },
        {
          "internalType": "uint256",
          "name": "_organ_id",
          "type": "uint256"
        },
        {
          "internalType": "uint256",
          "name": "_time",
          "type": "uint256"
        }
      ],
      "name": "registerOrganForDoner",
      "outputs": [],
      "stateMutability": "nonpayable",
      "type": "function"
    },
    {
      "inputs": [
        {
          "components": [
            {
              "internalType": "address",
              "name": "id",
              "type": "address"
            },
            {
              "internalType": "bytes32",
              "name": "name",
              "type": "bytes32"
            },
            {
              "internalType": "bytes32",
              "name": "email",
              "type": "bytes32"
            },
            {
              "internalType": "bytes32",
              "name": "mobile",
              "type": "bytes32"
            },
            {
              "internalType": "bytes32",
              "name": "role",
              "type": "bytes32"
            },
            {
              "internalType": "bool",
              "name": "verified",
              "type": "bool"
            },
            {
              "internalType": "uint256",
              "name": "hospital_id",
              "type": "uint256"
            }
          ],
          "internalType": "struct DonationContract.User",
          "name": "_user",
          "type": "tuple"
        },
        {
          "components": [
            {
              "internalType": "uint256",
              "name": "id",
              "type": "uint256"
            },
            {
              "internalType": "bytes32",
              "name": "name",
              "type": "bytes32"
            },
            {
              "internalType": "bytes32",
              "name": "hospital_type",
              "type": "bytes32"
            },
            {
              "internalType": "bytes32",
              "name": "registration_number",
              "type": "bytes32"
            },
            {
              "internalType": "bytes32",
              "name": "address_line",
              "type": "bytes32"
            },
            {
              "internalType": "bytes32",
              "name": "state",
              "type": "bytes32"
            },
            {
              "internalType": "bytes32",
              "name": "district",
              "type": "bytes32"
            },
            {
              "internalType": "bytes32",
              "name": "town",
              "type": "bytes32"
            },
            {
              "internalType": "uint256",
              "name": "pincode",
              "type": "uint256"
            },
            {
              "internalType": "bytes32",
              "name": "telephone",
              "type": "bytes32"
            },
            {
              "internalType": "bytes32",
              "name": "mobile",
              "type": "bytes32"
            },
            {
              "internalType": "bytes32",
              "name": "emergency_mobile",
              "type": "bytes32"
            },
            {
              "internalType": "bytes32",
              "name": "longitude",
              "type": "bytes32"
            },
            {
              "internalType": "bytes32",
              "name": "latitude",
              "type": "bytes32"
            }
          ],
          "internalType": "struct DonationContract.Hospital",
          "name": "_hospital",
          "type": "tuple"
        }
      ],
      "name": "registerUser",
      "outputs": [],
      "stateMutability": "nonpayable",
      "type": "function"
    },
    {
      "inputs": [
        {
          "internalType": "address",
          "name": "_address",
          "type": "address"
        }
      ],
      "name": "approveUser",
      "outputs": [],
      "stateMutability": "nonpayable",
      "type": "function"
    },
    {
      "inputs": [
        {
          "components": [
            {
              "internalType": "uint256",
              "name": "id",
              "type": "uint256"
            },
            {
              "internalType": "bytes32",
              "name": "fname",
              "type": "bytes32"
            },
            {
              "internalType": "bytes32",
              "name": "lname",
              "type": "bytes32"
            },
            {
              "internalType": "bytes32",
              "name": "email",
              "type": "bytes32"
            },
            {
              "internalType": "bytes32",
              "name": "dob",
              "type": "bytes32"
            },
            {
              "internalType": "uint256",
              "name": "mobile",
              "type": "uint256"
            },
            {
              "internalType": "uint256",
              "name": "uidai",
              "type": "uint256"
            },
            {
              "internalType": "uint256",
              "name": "age",
              "type": "uint256"
            },
            {
              "internalType": "uint256",
              "name": "weight",
              "type": "uint256"
            },
            {
              "internalType": "uint256",
              "name": "height",
              "type": "uint256"
            },
            {
              "internalType": "uint256",
              "name": "bmi",
              "type": "uint256"
            },
            {
              "internalType": "bytes32",
              "name": "blood_group",
              "type": "bytes32"
            },
            {
              "internalType": "bytes32",
              "name": "gender",
              "type": "bytes32"
            },
            {
              "internalType": "bytes32",
              "name": "address_line",
              "type": "bytes32"
            },
            {
              "internalType": "bytes32",
              "name": "state",
              "type": "bytes32"
            },
            {
              "internalType": "bytes32",
              "name": "district",
              "type": "bytes32"
            },
            {
              "internalType": "bytes32",
              "name": "postal_code",
              "type": "bytes32"
            },
            {
              "internalType": "bool",
              "name": "demise",
              "type": "bool"
            },
            {
              "internalType": "uint256",
              "name": "register_hospital_id",
              "type": "uint256"
            },
            {
              "internalType": "uint256",
              "name": "demise_hospital_id",
              "type": "uint256"
            }
          ],
          "internalType": "struct DonationContract.Doner",
          "name": "_doner",
          "type": "tuple"
        }
      ],
      "name": "registerDoner",
      "outputs": [],
      "stateMutability": "nonpayable",
      "type": "function"
    },
    {
      "inputs": [],
      "name": "getDoner",
      "outputs": [
        {
          "components": [
            {
              "internalType": "uint256",
              "name": "id",
              "type": "uint256"
            },
            {
              "internalType": "bytes32",
              "name": "fname",
              "type": "bytes32"
            },
            {
              "internalType": "bytes32",
              "name": "lname",
              "type": "bytes32"
            },
            {
              "internalType": "bytes32",
              "name": "email",
              "type": "bytes32"
            },
            {
              "internalType": "bytes32",
              "name": "dob",
              "type": "bytes32"
            },
            {
              "internalType": "uint256",
              "name": "mobile",
              "type": "uint256"
            },
            {
              "internalType": "uint256",
              "name": "uidai",
              "type": "uint256"
            },
            {
              "internalType": "uint256",
              "name": "age",
              "type": "uint256"
            },
            {
              "internalType": "uint256",
              "name": "weight",
              "type": "uint256"
            },
            {
              "internalType": "uint256",
              "name": "height",
              "type": "uint256"
            },
            {
              "internalType": "uint256",
              "name": "bmi",
              "type": "uint256"
            },
            {
              "internalType": "bytes32",
              "name": "blood_group",
              "type": "bytes32"
            },
            {
              "internalType": "bytes32",
              "name": "gender",
              "type": "bytes32"
            },
            {
              "internalType": "bytes32",
              "name": "address_line",
              "type": "bytes32"
            },
            {
              "internalType": "bytes32",
              "name": "state",
              "type": "bytes32"
            },
            {
              "internalType": "bytes32",
              "name": "district",
              "type": "bytes32"
            },
            {
              "internalType": "bytes32",
              "name": "postal_code",
              "type": "bytes32"
            },
            {
              "internalType": "bool",
              "name": "demise",
              "type": "bool"
            },
            {
              "internalType": "uint256",
              "name": "register_hospital_id",
              "type": "uint256"
            },
            {
              "internalType": "uint256",
              "name": "demise_hospital_id",
              "type": "uint256"
            }
          ],
          "internalType": "struct DonationContract.Doner[]",
          "name": "",
          "type": "tuple[]"
        }
      ],
      "stateMutability": "view",
      "type": "function",
      "constant": true
    },
    {
      "inputs": [
        {
          "internalType": "uint256",
          "name": "id",
          "type": "uint256"
        }
      ],
      "name": "getDonerById",
      "outputs": [
        {
          "components": [
            {
              "internalType": "uint256",
              "name": "id",
              "type": "uint256"
            },
            {
              "internalType": "bytes32",
              "name": "fname",
              "type": "bytes32"
            },
            {
              "internalType": "bytes32",
              "name": "lname",
              "type": "bytes32"
            },
            {
              "internalType": "bytes32",
              "name": "email",
              "type": "bytes32"
            },
            {
              "internalType": "bytes32",
              "name": "dob",
              "type": "bytes32"
            },
            {
              "internalType": "uint256",
              "name": "mobile",
              "type": "uint256"
            },
            {
              "internalType": "uint256",
              "name": "uidai",
              "type": "uint256"
            },
            {
              "internalType": "uint256",
              "name": "age",
              "type": "uint256"
            },
            {
              "internalType": "uint256",
              "name": "weight",
              "type": "uint256"
            },
            {
              "internalType": "uint256",
              "name": "height",
              "type": "uint256"
            },
            {
              "internalType": "uint256",
              "name": "bmi",
              "type": "uint256"
            },
            {
              "internalType": "bytes32",
              "name": "blood_group",
              "type": "bytes32"
            },
            {
              "internalType": "bytes32",
              "name": "gender",
              "type": "bytes32"
            },
            {
              "internalType": "bytes32",
              "name": "address_line",
              "type": "bytes32"
            },
            {
              "internalType": "bytes32",
              "name": "state",
              "type": "bytes32"
            },
            {
              "internalType": "bytes32",
              "name": "district",
              "type": "bytes32"
            },
            {
              "internalType": "bytes32",
              "name": "postal_code",
              "type": "bytes32"
            },
            {
              "internalType": "bool",
              "name": "demise",
              "type": "bool"
            },
            {
              "internalType": "uint256",
              "name": "register_hospital_id",
              "type": "uint256"
            },
            {
              "internalType": "uint256",
              "name": "demise_hospital_id",
              "type": "uint256"
            }
          ],
          "internalType": "struct DonationContract.Doner",
          "name": "_doner",
          "type": "tuple"
        },
        {
          "components": [
            {
              "internalType": "uint256",
              "name": "id",
              "type": "uint256"
            },
            {
              "internalType": "bytes32",
              "name": "name",
              "type": "bytes32"
            },
            {
              "internalType": "bytes32",
              "name": "hospital_type",
              "type": "bytes32"
            },
            {
              "internalType": "bytes32",
              "name": "registration_number",
              "type": "bytes32"
            },
            {
              "internalType": "bytes32",
              "name": "address_line",
              "type": "bytes32"
            },
            {
              "internalType": "bytes32",
              "name": "state",
              "type": "bytes32"
            },
            {
              "internalType": "bytes32",
              "name": "district",
              "type": "bytes32"
            },
            {
              "internalType": "bytes32",
              "name": "town",
              "type": "bytes32"
            },
            {
              "internalType": "uint256",
              "name": "pincode",
              "type": "uint256"
            },
            {
              "internalType": "bytes32",
              "name": "telephone",
              "type": "bytes32"
            },
            {
              "internalType": "bytes32",
              "name": "mobile",
              "type": "bytes32"
            },
            {
              "internalType": "bytes32",
              "name": "emergency_mobile",
              "type": "bytes32"
            },
            {
              "internalType": "bytes32",
              "name": "longitude",
              "type": "bytes32"
            },
            {
              "internalType": "bytes32",
              "name": "latitude",
              "type": "bytes32"
            }
          ],
          "internalType": "struct DonationContract.Hospital",
          "name": "_request_hospital",
          "type": "tuple"
        },
        {
          "components": [
            {
              "internalType": "uint256",
              "name": "id",
              "type": "uint256"
            },
            {
              "internalType": "bytes32",
              "name": "name",
              "type": "bytes32"
            },
            {
              "internalType": "bytes32",
              "name": "hospital_type",
              "type": "bytes32"
            },
            {
              "internalType": "bytes32",
              "name": "registration_number",
              "type": "bytes32"
            },
            {
              "internalType": "bytes32",
              "name": "address_line",
              "type": "bytes32"
            },
            {
              "internalType": "bytes32",
              "name": "state",
              "type": "bytes32"
            },
            {
              "internalType": "bytes32",
              "name": "district",
              "type": "bytes32"
            },
            {
              "internalType": "bytes32",
              "name": "town",
              "type": "bytes32"
            },
            {
              "internalType": "uint256",
              "name": "pincode",
              "type": "uint256"
            },
            {
              "internalType": "bytes32",
              "name": "telephone",
              "type": "bytes32"
            },
            {
              "internalType": "bytes32",
              "name": "mobile",
              "type": "bytes32"
            },
            {
              "internalType": "bytes32",
              "name": "emergency_mobile",
              "type": "bytes32"
            },
            {
              "internalType": "bytes32",
              "name": "longitude",
              "type": "bytes32"
            },
            {
              "internalType": "bytes32",
              "name": "latitude",
              "type": "bytes32"
            }
          ],
          "internalType": "struct DonationContract.Hospital",
          "name": "_demise_hospital",
          "type": "tuple"
        }
      ],
      "stateMutability": "view",
      "type": "function",
      "constant": true
    },
    {
      "inputs": [
        {
          "internalType": "uint256",
          "name": "doner_id",
          "type": "uint256"
        }
      ],
      "name": "donerDemise",
      "outputs": [],
      "stateMutability": "nonpayable",
      "type": "function"
    },
    {
      "inputs": [
        {
          "components": [
            {
              "internalType": "uint256",
              "name": "id",
              "type": "uint256"
            },
            {
              "internalType": "bytes32",
              "name": "fname",
              "type": "bytes32"
            },
            {
              "internalType": "bytes32",
              "name": "lname",
              "type": "bytes32"
            },
            {
              "internalType": "bytes32",
              "name": "gender",
              "type": "bytes32"
            },
            {
              "internalType": "bytes32",
              "name": "dob",
              "type": "bytes32"
            },
            {
              "internalType": "uint256",
              "name": "age",
              "type": "uint256"
            },
            {
              "internalType": "bytes32",
              "name": "email",
              "type": "bytes32"
            },
            {
              "internalType": "uint256",
              "name": "mobile",
              "type": "uint256"
            },
            {
              "internalType": "uint256",
              "name": "uidai",
              "type": "uint256"
            },
            {
              "internalType": "uint256",
              "name": "weight",
              "type": "uint256"
            },
            {
              "internalType": "uint256",
              "name": "height",
              "type": "uint256"
            },
            {
              "internalType": "uint256",
              "name": "bmi",
              "type": "uint256"
            },
            {
              "internalType": "bytes32",
              "name": "blood_group",
              "type": "bytes32"
            },
            {
              "internalType": "bytes32",
              "name": "address_line",
              "type": "bytes32"
            },
            {
              "internalType": "bytes32",
              "name": "state",
              "type": "bytes32"
            },
            {
              "internalType": "bytes32",
              "name": "district",
              "type": "bytes32"
            },
            {
              "internalType": "bytes32",
              "name": "postal_code",
              "type": "bytes32"
            },
            {
              "internalType": "uint256",
              "name": "register_hospital_id",
              "type": "uint256"
            }
          ],
          "internalType": "struct DonationContract.Requestor",
          "name": "_requestor",
          "type": "tuple"
        }
      ],
      "name": "registerRequestor",
      "outputs": [],
      "stateMutability": "nonpayable",
      "type": "function"
    },
    {
      "inputs": [
        {
          "internalType": "address",
          "name": "_id",
          "type": "address"
        }
      ],
      "name": "getRequestor",
      "outputs": [
        {
          "components": [
            {
              "internalType": "uint256",
              "name": "id",
              "type": "uint256"
            },
            {
              "internalType": "bytes32",
              "name": "fname",
              "type": "bytes32"
            },
            {
              "internalType": "bytes32",
              "name": "lname",
              "type": "bytes32"
            },
            {
              "internalType": "bytes32",
              "name": "gender",
              "type": "bytes32"
            },
            {
              "internalType": "bytes32",
              "name": "dob",
              "type": "bytes32"
            },
            {
              "internalType": "uint256",
              "name": "age",
              "type": "uint256"
            },
            {
              "internalType": "bytes32",
              "name": "email",
              "type": "bytes32"
            },
            {
              "internalType": "uint256",
              "name": "mobile",
              "type": "uint256"
            },
            {
              "internalType": "uint256",
              "name": "uidai",
              "type": "uint256"
            },
            {
              "internalType": "uint256",
              "name": "weight",
              "type": "uint256"
            },
            {
              "internalType": "uint256",
              "name": "height",
              "type": "uint256"
            },
            {
              "internalType": "uint256",
              "name": "bmi",
              "type": "uint256"
            },
            {
              "internalType": "bytes32",
              "name": "blood_group",
              "type": "bytes32"
            },
            {
              "internalType": "bytes32",
              "name": "address_line",
              "type": "bytes32"
            },
            {
              "internalType": "bytes32",
              "name": "state",
              "type": "bytes32"
            },
            {
              "internalType": "bytes32",
              "name": "district",
              "type": "bytes32"
            },
            {
              "internalType": "bytes32",
              "name": "postal_code",
              "type": "bytes32"
            },
            {
              "internalType": "uint256",
              "name": "register_hospital_id",
              "type": "uint256"
            }
          ],
          "internalType": "struct DonationContract.Requestor[]",
          "name": "",
          "type": "tuple[]"
        }
      ],
      "stateMutability": "view",
      "type": "function",
      "constant": true
    },
    {
      "inputs": [
        {
          "internalType": "uint256",
          "name": "id",
          "type": "uint256"
        }
      ],
      "name": "getRequestorById",
      "outputs": [
        {
          "components": [
            {
              "internalType": "uint256",
              "name": "id",
              "type": "uint256"
            },
            {
              "internalType": "bytes32",
              "name": "fname",
              "type": "bytes32"
            },
            {
              "internalType": "bytes32",
              "name": "lname",
              "type": "bytes32"
            },
            {
              "internalType": "bytes32",
              "name": "gender",
              "type": "bytes32"
            },
            {
              "internalType": "bytes32",
              "name": "dob",
              "type": "bytes32"
            },
            {
              "internalType": "uint256",
              "name": "age",
              "type": "uint256"
            },
            {
              "internalType": "bytes32",
              "name": "email",
              "type": "bytes32"
            },
            {
              "internalType": "uint256",
              "name": "mobile",
              "type": "uint256"
            },
            {
              "internalType": "uint256",
              "name": "uidai",
              "type": "uint256"
            },
            {
              "internalType": "uint256",
              "name": "weight",
              "type": "uint256"
            },
            {
              "internalType": "uint256",
              "name": "height",
              "type": "uint256"
            },
            {
              "internalType": "uint256",
              "name": "bmi",
              "type": "uint256"
            },
            {
              "internalType": "bytes32",
              "name": "blood_group",
              "type": "bytes32"
            },
            {
              "internalType": "bytes32",
              "name": "address_line",
              "type": "bytes32"
            },
            {
              "internalType": "bytes32",
              "name": "state",
              "type": "bytes32"
            },
            {
              "internalType": "bytes32",
              "name": "district",
              "type": "bytes32"
            },
            {
              "internalType": "bytes32",
              "name": "postal_code",
              "type": "bytes32"
            },
            {
              "internalType": "uint256",
              "name": "register_hospital_id",
              "type": "uint256"
            }
          ],
          "internalType": "struct DonationContract.Requestor",
          "name": "_requestor",
          "type": "tuple"
        },
        {
          "components": [
            {
              "internalType": "uint256",
              "name": "id",
              "type": "uint256"
            },
            {
              "internalType": "bytes32",
              "name": "name",
              "type": "bytes32"
            },
            {
              "internalType": "bytes32",
              "name": "hospital_type",
              "type": "bytes32"
            },
            {
              "internalType": "bytes32",
              "name": "registration_number",
              "type": "bytes32"
            },
            {
              "internalType": "bytes32",
              "name": "address_line",
              "type": "bytes32"
            },
            {
              "internalType": "bytes32",
              "name": "state",
              "type": "bytes32"
            },
            {
              "internalType": "bytes32",
              "name": "district",
              "type": "bytes32"
            },
            {
              "internalType": "bytes32",
              "name": "town",
              "type": "bytes32"
            },
            {
              "internalType": "uint256",
              "name": "pincode",
              "type": "uint256"
            },
            {
              "internalType": "bytes32",
              "name": "telephone",
              "type": "bytes32"
            },
            {
              "internalType": "bytes32",
              "name": "mobile",
              "type": "bytes32"
            },
            {
              "internalType": "bytes32",
              "name": "emergency_mobile",
              "type": "bytes32"
            },
            {
              "internalType": "bytes32",
              "name": "longitude",
              "type": "bytes32"
            },
            {
              "internalType": "bytes32",
              "name": "latitude",
              "type": "bytes32"
            }
          ],
          "internalType": "struct DonationContract.Hospital",
          "name": "_request_hospital",
          "type": "tuple"
        }
      ],
      "stateMutability": "view",
      "type": "function",
      "constant": true
    },
    {
      "inputs": [
        {
          "internalType": "uint256",
          "name": "_requestor_organ_map_id",
          "type": "uint256"
        },
        {
          "internalType": "uint256",
          "name": "_doner_organ_map_id",
          "type": "uint256"
        },
        {
          "internalType": "uint256",
          "name": "_doner_map_id",
          "type": "uint256"
        },
        {
          "internalType": "uint256",
          "name": "_requestor_map_id",
          "type": "uint256"
        }
      ],
      "name": "requestForOrgan",
      "outputs": [],
      "stateMutability": "nonpayable",
      "type": "function"
    },
    {
      "inputs": [],
      "name": "getOrganRequestor",
      "outputs": [
        {
          "components": [
            {
              "internalType": "uint256",
              "name": "id",
              "type": "uint256"
            },
            {
              "internalType": "uint256",
              "name": "requestor_organ_map_id",
              "type": "uint256"
            },
            {
              "internalType": "uint256",
              "name": "doner_organ_map_id",
              "type": "uint256"
            },
            {
              "internalType": "uint256",
              "name": "doner_map_id",
              "type": "uint256"
            },
            {
              "internalType": "uint256",
              "name": "requestor_map_id",
              "type": "uint256"
            }
          ],
          "internalType": "struct DonationContract.OrganRequest[]",
          "name": "_organ_request",
          "type": "tuple[]"
        }
      ],
      "stateMutability": "view",
      "type": "function",
      "constant": true
    },
    {
      "inputs": [
        {
          "internalType": "uint256",
          "name": "_requestor_organ_map_id",
          "type": "uint256"
        }
      ],
      "name": "transplanted",
      "outputs": [],
      "stateMutability": "nonpayable",
      "type": "function"
    },
    {
      "inputs": [],
      "name": "getUser",
      "outputs": [
        {
          "components": [
            {
              "internalType": "address",
              "name": "id",
              "type": "address"
            },
            {
              "internalType": "bytes32",
              "name": "name",
              "type": "bytes32"
            },
            {
              "internalType": "bytes32",
              "name": "email",
              "type": "bytes32"
            },
            {
              "internalType": "bytes32",
              "name": "mobile",
              "type": "bytes32"
            },
            {
              "internalType": "bytes32",
              "name": "role",
              "type": "bytes32"
            },
            {
              "internalType": "bool",
              "name": "verified",
              "type": "bool"
            },
            {
              "internalType": "uint256",
              "name": "hospital_id",
              "type": "uint256"
            }
          ],
          "internalType": "struct DonationContract.User",
          "name": "user",
          "type": "tuple"
        },
        {
          "components": [
            {
              "internalType": "uint256",
              "name": "id",
              "type": "uint256"
            },
            {
              "internalType": "bytes32",
              "name": "name",
              "type": "bytes32"
            },
            {
              "internalType": "bytes32",
              "name": "hospital_type",
              "type": "bytes32"
            },
            {
              "internalType": "bytes32",
              "name": "registration_number",
              "type": "bytes32"
            },
            {
              "internalType": "bytes32",
              "name": "address_line",
              "type": "bytes32"
            },
            {
              "internalType": "bytes32",
              "name": "state",
              "type": "bytes32"
            },
            {
              "internalType": "bytes32",
              "name": "district",
              "type": "bytes32"
            },
            {
              "internalType": "bytes32",
              "name": "town",
              "type": "bytes32"
            },
            {
              "internalType": "uint256",
              "name": "pincode",
              "type": "uint256"
            },
            {
              "internalType": "bytes32",
              "name": "telephone",
              "type": "bytes32"
            },
            {
              "internalType": "bytes32",
              "name": "mobile",
              "type": "bytes32"
            },
            {
              "internalType": "bytes32",
              "name": "emergency_mobile",
              "type": "bytes32"
            },
            {
              "internalType": "bytes32",
              "name": "longitude",
              "type": "bytes32"
            },
            {
              "internalType": "bytes32",
              "name": "latitude",
              "type": "bytes32"
            }
          ],
          "internalType": "struct DonationContract.Hospital",
          "name": "hospital",
          "type": "tuple"
        }
      ],
      "stateMutability": "view",
      "type": "function",
      "constant": true
    },
    {
      "inputs": [],
      "name": "getUnverifiedUser",
      "outputs": [
        {
          "components": [
            {
              "internalType": "address",
              "name": "id",
              "type": "address"
            },
            {
              "internalType": "bytes32",
              "name": "name",
              "type": "bytes32"
            },
            {
              "internalType": "bytes32",
              "name": "email",
              "type": "bytes32"
            },
            {
              "internalType": "bytes32",
              "name": "mobile",
              "type": "bytes32"
            },
            {
              "internalType": "bytes32",
              "name": "role",
              "type": "bytes32"
            },
            {
              "internalType": "bool",
              "name": "verified",
              "type": "bool"
            },
            {
              "internalType": "uint256",
              "name": "hospital_id",
              "type": "uint256"
            }
          ],
          "internalType": "struct DonationContract.User[]",
          "name": "users",
          "type": "tuple[]"
        },
        {
          "components": [
            {
              "internalType": "uint256",
              "name": "id",
              "type": "uint256"
            },
            {
              "internalType": "bytes32",
              "name": "name",
              "type": "bytes32"
            },
            {
              "internalType": "bytes32",
              "name": "hospital_type",
              "type": "bytes32"
            },
            {
              "internalType": "bytes32",
              "name": "registration_number",
              "type": "bytes32"
            },
            {
              "internalType": "bytes32",
              "name": "address_line",
              "type": "bytes32"
            },
            {
              "internalType": "bytes32",
              "name": "state",
              "type": "bytes32"
            },
            {
              "internalType": "bytes32",
              "name": "district",
              "type": "bytes32"
            },
            {
              "internalType": "bytes32",
              "name": "town",
              "type": "bytes32"
            },
            {
              "internalType": "uint256",
              "name": "pincode",
              "type": "uint256"
            },
            {
              "internalType": "bytes32",
              "name": "telephone",
              "type": "bytes32"
            },
            {
              "internalType": "bytes32",
              "name": "mobile",
              "type": "bytes32"
            },
            {
              "internalType": "bytes32",
              "name": "emergency_mobile",
              "type": "bytes32"
            },
            {
              "internalType": "bytes32",
              "name": "longitude",
              "type": "bytes32"
            },
            {
              "internalType": "bytes32",
              "name": "latitude",
              "type": "bytes32"
            }
          ],
          "internalType": "struct DonationContract.Hospital[]",
          "name": "hospitals",
          "type": "tuple[]"
        }
      ],
      "stateMutability": "view",
      "type": "function",
      "constant": true
    }
  ],
  "bytecode": "0x608060405260006001556000600255600060035560006004556000600555600060065560006008553480156200003457600080fd5b5060405162004e8138038062004e818339810160408190526200005791620006a5565b600080546001600160a01b0319163390811782556040805160e0810182529182526020820186905281810185905260608083018590526430b236b4b760d91b6080840152600160a0840181905260c084019490945281519081019091528254919290918291620000c89190620006ea565b8152602001634c756e6760e01b81526020016004815250600b60006001546001620000f49190620006ea565b815260200190815260200160002060008201518160000155602082015181600101556040820151816002015590505060016000815480929190620001389062000705565b919050555060405180606001604052806001546001620001599190620006ea565b8152602001641219585c9d60da1b81526020016004815250600b60006001546001620001869190620006ea565b815260200190815260200160002060008201518160000155602082015181600101556040820151816002015590505060016000815480929190620001ca9062000705565b919050555060405180606001604052806001546001620001eb9190620006ea565b8152602001642634bb32b960d91b81526020016018815250600b60006001546001620002189190620006ea565b8152602001908152602001600020600082015181600001556020820151816001015560408201518160020155905050600160008154809291906200025c9062000705565b9190505550604051806060016040528060015460016200027d9190620006ea565b81526020016750616e637265617360c01b81526020016018815250600b60006001546001620002ad9190620006ea565b815260200190815260200160002060008201518160000155602082015181600101556040820151816002015590505060016000815480929190620002f19062000705565b919050555060405180606001604052806001546001620003129190620006ea565b8152602001654b69646e657960d01b81526020016048815250600b60006001546001620003409190620006ea565b815260200190815260200160002060008201518160000155602082015181600101556040820151816002015590505060016000815480929190620003849062000705565b919050555060405180606001604052806001546001620003a59190620006ea565b815260200165436f726e656160d01b8152602001610150815250600b60006001546001620003d49190620006ea565b815260200190815260200160002060008201518160000155602082015181600101556040820151816002015590505060016000815480929190620004189062000705565b919050555060405180606001604052806001546001620004399190620006ea565b815260200164426f6e657360d81b815260200161ab18815250600b60006001546001620004679190620006ea565b815260200190815260200160002060008201518160000155602082015181600101556040820151816002015590505060016000815480929190620004ab9062000705565b919050555060405180606001604052806001546001620004cc9190620006ea565b81526020016329b5b4b760e11b815260200161ab18815250600b60006001546001620004f99190620006ea565b8152602001908152602001600020600082015181600001556020820151816001015560408201518160020155905050600160008154809291906200053d9062000705565b9190505550604051806060016040528060015460016200055e9190620006ea565b81526020016b48656172742056616c76657360a01b815260200162015630815250600b60006001546001620005949190620006ea565b815260200190815260200160002060008201518160000155602082015181600101556040820151816002015590505060016000815480929190620005d89062000705565b9091555050600080546007805460018082019092557fa66cc928b5edb82af9bd49922954155ab7b0942694bea4ce44661d9a8736c6880180546001600160a01b039384166001600160a01b03199182161790915583548316808652845260096020908152604094859020865181549093169290941691909117835584015190820155908201516002820155606082015160038201556080820151600482015560a082015160058201805460ff191691151591909117905560c0909101516006909101555062000723915050565b600080600060608486031215620006bb57600080fd5b8351925060208401519150604084015190509250925092565b634e487b7160e01b600052601160045260246000fd5b60008219821115620007005762000700620006d4565b500190565b60006000198214156200071c576200071c620006d4565b5060010190565b61474e80620007336000396000f3fe608060405234801561001057600080fd5b50600436106101825760003560e01c806386fb660c116100d8578063a2fba48c1161008c578063d624fdb611610066578063d624fdb614610554578063e1ea12d414610567578063fae6171a1461079b57600080fd5b8063a2fba48c14610500578063b6798d0214610521578063d40435141461053457600080fd5b80639bea424b116100bd5780639bea424b146104c3578063a192681c146104d8578063a2622f88146104eb57600080fd5b806386fb660c1461048d5780638b439b4e146104ad57600080fd5b80636e58e8321161013a5780637d53b45a116101145780637d53b45a14610247578063832880e71461025a57806383908d961461047857600080fd5b80636e58e832146101f55780637407bcdf146102215780637a6d21561461023457600080fd5b80631aecb28b1161016b5780631aecb28b146101ba5780632a2737b3146101cf5780634abd4d78146101e257600080fd5b806304228bea146101875780630c50dc49146101a5575b600080fd5b61018f6107b0565b60405161019c9190613694565b60405180910390f35b6101b86101b33660046137fa565b6108d4565b005b6101c2610a38565b60405161019c91906139c1565b6101b86101dd3660046139d4565b610bec565b6101b86101f0366004613a00565b610d05565b6101b8610203366004613a00565b6000908152600e60205260409020600401805460ff19166001179055565b6101b861022f366004613a19565b6112e3565b6101b8610242366004613bc1565b611411565b6101b8610255366004613c53565b61164d565b61046a6040805160e081018252600080825260208201819052918101829052606081018290526080810182905260a0810182905260c0810191909152604080516101c081018252600080825260208201819052918101829052606081018290526080810182905260a0810182905260c0810182905260e08101829052610100810182905261012081018290526101408101829052610160810182905261018081018290526101a081019190915260096000336001600160a01b03166001600160a01b031681526020019081526020016000206040518060e00160405290816000820160009054906101000a90046001600160a01b03166001600160a01b03166001600160a01b03168152602001600182015481526020016002820154815260200160038201548152602001600482015481526020016005820160009054906101000a900460ff161515151581526020016006820154815250509150600f60008360c001518152602001908152602001600020604051806101c001604052908160008201548152602001600182015481526020016002820154815260200160038201548152602001600482015481526020016005820154815260200160068201548152602001600782015481526020016008820154815260200160098201548152602001600a8201548152602001600b8201548152602001600c8201548152602001600d8201548152505090509091565b60405161019c929190613c85565b610480611769565b60405161019c9190613d73565b6104a061049b366004613e8e565b6119ae565b60405161019c9190613f17565b6104b5612033565b60405161019c929190614095565b6104cb612420565b60405161019c9190614140565b6101b86104e63660046141af565b61253a565b6104f3612639565b60405161019c91906141d1565b61051361050e366004613a00565b61276c565b60405161019c9291906141e4565b6104f361052f366004613a00565b612a74565b610547610542366004614343565b612c0f565b60405161019c919061435e565b6101b8610562366004614343565b6130be565b61057a610575366004613a00565b61312c565b60405161019c93929190835181526020808501519082015260408085015190820152606080850151908201526080808501519082015260a0808501519082015260c0808501519082015260e08085015190820152610100808501519082015261012080850151908201526101408085015190820152610160808501519082015261018080850151908201526101a080850151908201526101c080850151908201526101e08085015190820152610200808501519082015261022080850151151590820152610240808501519082015261026080850151908201526106008101835161028083015260208401516102a083015260408401516102c083015260608401516102e0830152608084015161030083015260a084015161032083015260c084015161034083015260e08401516103608301526101008401516103808301526101208401516103a08301526101408401516103c08301526101608401516103e08301526101808401516104008301526101a084015161042083015282516104408301526020830151610460830152604083015161048083015260608301516104a083015260808301516104c083015260a08301516104e083015260c083015161050083015260e08301516105208301526101008301516105408301526101208301516105608301526101408301516105808301526101608301516105a08301526101808301516105c08301526101a08301516105e0830152949350505050565b6107a361358c565b60405161019c919061449b565b6060600060025467ffffffffffffffff8111156107cf576107cf613702565b60405190808252806020026020018201604052801561083257816020015b61081f6040518060a0016040528060008152602001600081526020016000815260200160008152602001600081525090565b8152602001906001900390816107ed5790505b50915060015b60025481116108cf57601060008281526020019081526020016000206040518060a0016040529081600082015481526020016001820154815260200160028201548152602001600382015481526020016004820154815250508383815181106108a3576108a36144ae565b602002602001018190525081806108b9906144c4565b92505080806108c7906144c4565b915050610838565b505090565b6003600081546108e3906144c4565b918290555081526000610220820181815233825260096020818152604080852060069081015461024088019081526102608801878152600380548952600a808752988590208a518155958a01516001870155848a0151600287015560608a0151908601556080890151600486015560a0890151600586015560c08901519285019290925560e0880151600785015561010088015160088501556101208801519484019490945561014087015195830195909555610160860151600b830155610180860151600c8301556101a0860151600d8301556101c0860151600e8301556101e0860151600f8301556102008601516010830155925160118201805460ff1916911515919091179055905160128201559151601390920191909155517fe42c5e22ac3f297a7940f90a45adf34685e45053528be4e4007572681ed3989390610a2d9083906144ed565b60405180910390a150565b606060085467ffffffffffffffff811115610a5557610a55613702565b604051908082528060200260200182016040528015610af457816020015b604080516101c08101825260008082526020808301829052928201819052606082018190526080820181905260a0820181905260c0820181905260e08201819052610100820181905261012082018190526101408201819052610160820181905261018082018190526101a08201528252600019909201910181610a735790505b509050600060015b60085481116108cf57600f6000828152602001908152602001600020604051806101c001604052908160008201548152602001600182015481526020016002820154815260200160038201548152602001600482015481526020016005820154815260200160068201548152602001600782015481526020016008820154815260200160098201548152602001600a8201548152602001600b8201548152602001600c8201548152602001600d82015481525050838380610bbc906144c4565b945081518110610bce57610bce6144ae565b60200260200101819052508080610be4906144c4565b915050610afc565b60048054906000610bfc836144c4565b90915550506040805160c08101825260048054808352602080840188815284860188815260008a8152600a8452878120600b015460608801908152608088018a815260a08901838152968352600d9095528882209751885592516001880155905160028701559051600386015590518484015590516005909301805493151560ff199094169390931790925554815281902090517fd1bbc4a296b5f1d7c7c70df49c4b837fd6d4f1ae227c3cfd0064b75c2e5ced1691610cf891815481526001820154602082015260028201546040820152600382015460608201526004820154608082015260059091015460ff16151560a082015260c00190565b60405180910390a1505050565b6000818152600a6020818152604080842060118101805460ff19166001908117909155338652600984529185206006015494869052929091526013909101919091555b6004548111610d99576000818152600d6020526040902060010154821415610d87576000818152600d60205260409020600501805460ff191660011790555b80610d91816144c4565b915050610d48565b50600060015b6006548111610e615760015b6004548111610e4e576000818152600d6020526040902060010154841415610e3c576000828152600e60209081526040808320600290810154858552600d909352922090910154148015610e2957506000818152600d60209081526040808320600390810154868552600e909352922090910154610e299190613687565b15610e3c5782610e38816144c4565b9350505b80610e46816144c4565b915050610dab565b5080610e59816144c4565b915050610d9f565b5060008167ffffffffffffffff811115610e7d57610e7d613702565b604051908082528060200260200182016040528015610ea6578160200160208202803683370190505b50905060008267ffffffffffffffff811115610ec457610ec4613702565b604051908082528060200260200182016040528015610eed578160200160208202803683370190505b50905060008367ffffffffffffffff811115610f0b57610f0b613702565b604051908082528060200260200182016040528015610faa57816020015b604080516101c08101825260008082526020808301829052928201819052606082018190526080820181905260a0820181905260c0820181905260e08201819052610100820181905261012082018190526101408201819052610160820181905261018082018190526101a08201528252600019909201910181610f295790505b50905060008467ffffffffffffffff811115610fc857610fc8613702565b60405190808252806020026020018201604052801561101357816020015b6040805160608101825260008082526020808301829052928201528252600019909201910181610fe65790505b509050600060015b600654811161129c5760015b6004548111611289576000818152600d6020526040902060010154891415611277576000828152600e60209081526040808320600290810154858552600d9093529220909101541480156110a557506000818152600d60209081526040808320600390810154868552600e9093529220909101546110a59190613687565b15611277576000828152600e60209081526040808320600101548352600c90915290206011015487518890859081106110e0576110e06144ae565b602002602001018181525050600e600083815260200190815260200160002060010154868481518110611115576111156144ae565b6020908102919091018101919091526000828152600d80835260408083206001908101548452600a808652828520601301548552600f86529382902082516101c0810184528154815291810154958201959095526002850154918101919091526003840154606082015260048401546080820152600584015460a0820152600684015460c0820152600784015460e08201526008840154610100820152600984015461012082015291830154610140830152600b830154610160830152600c83015461018083015291909101546101a082015285518690859081106111fc576111fc6144ae565b6020908102919091018101919091526000828152600d825260408082206002908101548352600b8452918190208151606081018352815481526001820154948101949094529091015490820152845185908590811061125d5761125d6144ae565b60200260200101819052508280611273906144c4565b9350505b80611281816144c4565b915050611027565b5080611294816144c4565b91505061101b565b507fcdf990c86c02827b911edd873c0510429caf85b093ae87e6f5e990862e39e71b858585856040516112d294939291906145f7565b60405180910390a150505050505050565b6005600081546112f2906144c4565b918290555081523360009081526009602081815260408084206006908101546102208701908152600580548752600c8086529684902088518155948801516001860155838801516002860155606088015160038601556080880151600486015560a08801518582015560c08801519285019290925560e08701516007850155610100870151600885015561012087015194840194909455610140860151600a840155610160860151600b840155610180860151948301949094556101a0850151600d8301556101c0850151600e8301556101e0850151600f83015561020085015160108301559151601190910155905490517fcc266f29eccbc02b1992b2cea4397e5eff7f3c071b281d0f228b604961988acc91610a2d91849061464f565b7f75736572000000000000000000000000000000000000000000000000000000006080830152600060a08301819052600780546001810182559082527fa66cc928b5edb82af9bd49922954155ab7b0942694bea4ce44661d9a8736c6880180547fffffffffffffffffffffffff000000000000000000000000000000000000000016339081179091558084526008805491926114ac836144c4565b91905055506008548360c001818152505060085482600001818152505081600f60006008548152602001908152602001600020600082015181600001556020820151816001015560408201518160020155606082015181600301556080820151816004015560a0820151816005015560c0820151816006015560e082015181600701556101008201518160080155610120820151816009015561014082015181600a015561016082015181600b015561018082015181600c01556101a082015181600d01559050508260096000836001600160a01b03166001600160a01b0316815260200190815260200160002060008201518160000160006101000a8154816001600160a01b0302191690836001600160a01b031602179055506020820151816001015560408201518160020155606082015181600301556080820151816004015560a08201518160050160006101000a81548160ff02191690831515021790555060c082015181600601559050507fb700753c134fa7388e6261dce104205d19b869257bab507d88d6d0da07cc8a0d8383604051610cf8929190613c85565b6000838152600d602052604090206005015460ff1661166b57600080fd5b6002805490600061167b836144c4565b909155505060028054600081815260106020818152604080842094855560019485018a9055855484528084208601899055855484528084206003018890558554845280842060049081018890558a8552600e835281852001805460ff199081169096179055888452600d82528084206005018054909516909455935482529092529081902090517faf0109b3ea63a9364159cd76bcaa3b4db6e785656fbb9e6e2c52405ffdd925f39161175b9181548152600182015460208201526002820154604082015260038201546060820152600490910154608082015260a00190565b60405180910390a150505050565b60606003546000811161177b57600080fd5b600060035467ffffffffffffffff81111561179857611798613702565b60405190808252806020026020018201604052801561186757816020015b604080516102808101825260008082526020808301829052928201819052606082018190526080820181905260a0820181905260c0820181905260e08201819052610100820181905261012082018190526101408201819052610160820181905261018082018190526101a082018190526101c082018190526101e0820181905261020082018190526102208201819052610240820181905261026082015282526000199092019101816117b65790505b509050600060015b60035481116119a5576000818152600a6020818152604092839020835161028081018552815481526001820154928101929092526002810154938201939093526003830154606082015260048301546080820152600583015460a0820152600683015460c0820152600783015460e08201526008830154610100820152600983015461012082015290820154610140820152600b820154610160820152600c820154610180820152600d8201546101a0820152600e8201546101c0820152600f8201546101e08201526010820154610200820152601182015460ff16151561022082015260128201546102408201526013909101546102608201528383611975816144c4565b945081518110611987576119876144ae565b6020026020010181905250808061199d906144c4565b91505061186f565b50909250505090565b6060600060015b6006548111611a3b576001600160a01b038416600090815260096020908152604080832060060154848452600e8352818420600101548452600c90925290912060110154148015611a1657506000818152600e602052604090206001015485145b15611a295781611a25816144c4565b9250505b80611a33816144c4565b9150506119b5565b5060008167ffffffffffffffff811115611a5757611a57613702565b604051908082528060200260200182016040528015611ad357816020015b611ac06040805161010081019091526000606082018181526080830182905260a0830182905260c0830182905260e08301919091528190815260200160608152602001606081525090565b815260200190600190039081611a755790505b509050600060015b6006548111612026576001600160a01b038616600090815260096020908152604080832060060154848452600e8352818420600101548452600c90925290912060110154148015611b3c57506000818152600e602052604090206001015487145b15612014576000818152600e6020908152604091829020825160a081018452815481526001820154928101929092526002810154928201929092526003820154606082015260049091015460ff16151560808201528351849084908110611ba557611ba56144ae565b602090810291909101015152600060015b6004548111611c5a576000818152600d602052604090206005015460ff1615611c48576000838152600e60209081526040808320600290810154858552600d909352922090910154148015611c3557506000818152600d60209081526040808320600390810154878552600e909352922090910154611c359190613687565b15611c485781611c44816144c4565b9250505b80611c52816144c4565b915050611bb6565b5060008167ffffffffffffffff811115611c7657611c76613702565b604051908082528060200260200182016040528015611ce557816020015b611cd26040518060c0016040528060008152602001600081526020016000815260200160008019168152602001600081526020016000151581525090565b815260200190600190039081611c945790505b50905060008267ffffffffffffffff811115611d0357611d03613702565b604051908082528060200260200182016040528015611da257816020015b604080516101c08101825260008082526020808301829052928201819052606082018190526080820181905260a0820181905260c0820181905260e08201819052610100820181905261012082018190526101408201819052610160820181905261018082018190526101a08201528252600019909201910181611d215790505b509050600060015b6004548111611fbc576000818152600d602052604090206005015460ff1615611faa576000868152600e60209081526040808320600290810154858552600d909352922090910154148015611e2957506000818152600d602090815260408083206003908101548a8552600e909352922090910154611e299190613687565b15611faa576000818152600d6020908152604091829020825160c08101845281548152600182015492810192909252600281015492820192909252600382015460608201526004820154608082015260059091015460ff16151560a08201528451859084908110611e9c57611e9c6144ae565b6020026020010181905250600f6000600a6000600d6000868152602001908152602001600020600101548152602001908152602001600020601301548152602001908152602001600020604051806101c001604052908160008201548152602001600182015481526020016002820154815260200160038201548152602001600482015481526020016005820154815260200160068201548152602001600782015481526020016008820154815260200160098201548152602001600a8201548152602001600b8201548152602001600c8201548152602001600d82015481525050838381518110611f9057611f906144ae565b60200260200101819052508180611fa6906144c4565b9250505b80611fb4816144c4565b915050611daa565b5082878781518110611fd057611fd06144ae565b60200260200101516020018190525081878781518110611ff257611ff26144ae565b602002602001015160400181905250858061200c906144c4565b965050505050505b8061201e816144c4565b915050611adb565b5090925050505b92915050565b60005460609081906001600160a01b0316331461204f57600080fd5b6000805b60075481101561211f5760006009600060078481548110612076576120766144ae565b60009182526020808320909101546001600160a01b039081168452838201949094526040928301909120825160e081018452815490941684526001810154918401919091526002810154918301919091526003810154606083015260048101546080830152600581015460ff16151560a0830181905260069091015460c083015290915061210c5782612108816144c4565b9350505b5080612117816144c4565b915050612053565b508067ffffffffffffffff81111561213957612139613702565b6040519080825280602002602001820160405280156121a057816020015b6040805160e08101825260008082526020808301829052928201819052606082018190526080820181905260a0820181905260c082015282526000199092019101816121575790505b5092508067ffffffffffffffff8111156121bc576121bc613702565b60405190808252806020026020018201604052801561225b57816020015b604080516101c08101825260008082526020808301829052928201819052606082018190526080820181905260a0820181905260c0820181905260e08201819052610100820181905261012082018190526101408201819052610160820181905261018082018190526101a082015282526000199092019101816121da5790505b5091506000805b6007548110156124195760006009600060078481548110612285576122856144ae565b60009182526020808320909101546001600160a01b039081168452838201949094526040928301909120825160e081018452815490941684526001810154918401919091526002810154918301919091526003810154606083015260048101546080830152600581015460ff16151560a0830181905260069091015460c08301529091506124065780868481518110612320576123206144ae565b6020026020010181905250600f60008260c001518152602001908152602001600020604051806101c001604052908160008201548152602001600182015481526020016002820154815260200160038201548152602001600482015481526020016005820154815260200160068201548152602001600782015481526020016008820154815260200160098201548152602001600a8201548152602001600b8201548152602001600c8201548152602001600d820154815250508584815181106123ec576123ec6144ae565b60200260200101819052508280612402906144c4565b9350505b5080612411816144c4565b915050612262565b5050509091565b606060008060065467ffffffffffffffff81111561244057612440613702565b60405190808252806020026020018201604052801561249957816020015b6040805160a08101825260008082526020808301829052928201819052606082018190526080820152825260001990920191018161245e5790505b50905060015b6006548111612533576000818152600e6020908152604091829020825160a081018452815481526001820154928101929092526002810154928201929092526003820154606082015260049091015460ff16151560808201528284612503816144c4565b955081518110612515576125156144ae565b6020026020010181905250808061252b906144c4565b91505061249f565b5092915050565b6006805490600061254a836144c4565b90915550506040805160a0810182526006805480835260208084018781528486018781526000898152600c80855288822001546060880190815260808801828152958252600e90945287812096518755915160018701555160028601559051600385015590516004909301805493151560ff199094169390931790925554815281902090517f1f537e87d020c452bbf26780ef84d98a10596417fc46344252d3ed25a2b083259161262d918154815260018201546020820152600282015460408201526003820154606082015260049091015460ff161515608082015260a00190565b60405180910390a15050565b606060008060045467ffffffffffffffff81111561265957612659613702565b6040519080825280602002602001820160405280156126c857816020015b6126b56040518060c0016040528060008152602001600081526020016000815260200160008019168152602001600081526020016000151581525090565b8152602001906001900390816126775790505b50905060015b6004548111612533576000818152600d6020908152604091829020825160c08101845281548152600182015492810192909252600281015492820192909252600382015460608201526004820154608082015260059091015460ff16151560a0820152828461273c816144c4565b95508151811061274e5761274e6144ae565b60200260200101819052508080612764906144c4565b9150506126ce565b6040805161024081018252600080825260208201819052918101829052606081018290526080810182905260a0810182905260c0810182905260e08101829052610100810182905261012081018290526101408101829052610160810182905261018081018290526101a081018290526101c081018290526101e081018290526102008101829052610220810191909152604080516101c081018252600080825260208201819052918101829052606081018290526080810182905260a0810182905260c0810182905260e08101829052610100810182905261012081018290526101408101829052610160810182905261018081018290526101a08101919091526005546000811161287e57600080fd5b60055484111580156128905750600084115b6128e15760405162461bcd60e51b815260206004820152601860248201527f436865636b2074686520726571756573746f722069642021000000000000000060448201526064015b60405180910390fd5b600c60008581526020019081526020016000206040518061024001604052908160008201548152602001600182015481526020016002820154815260200160038201548152602001600482015481526020016005820154815260200160068201548152602001600782015481526020016008820154815260200160098201548152602001600a8201548152602001600b8201548152602001600c8201548152602001600d8201548152602001600e8201548152602001600f820154815260200160108201548152602001601182015481525050925082600f6000856102200151815260200190815260200160002080604051806101c001604052908160008201548152602001600182015481526020016002820154815260200160038201548152602001600482015481526020016005820154815260200160068201548152602001600782015481526020016008820154815260200160098201548152602001600a8201548152602001600b8201548152602001600c8201548152602001600d8201548152505090509250925050915091565b606060008060015b6004548111612abe576000818152600d6020526040902060010154851415612aac5781612aa8816144c4565b9250505b80612ab6816144c4565b915050612a7c565b5060008167ffffffffffffffff811115612ada57612ada613702565b604051908082528060200260200182016040528015612b4957816020015b612b366040518060c0016040528060008152602001600081526020016000815260200160008019168152602001600081526020016000151581525090565b815260200190600190039081612af85790505b50905060015b6004548111612c06576000818152600d6020526040902060010154861415612bf4576000818152600d6020908152604091829020825160c08101845281548152600182015492810192909252600281015492820192909252600382015460608201526004820154608082015260059091015460ff16151560a08201528285612bd6816144c4565b965081518110612be857612be86144ae565b60200260200101819052505b80612bfe816144c4565b915050612b4f565b50949350505050565b606060055460008111612c2157600080fd5b600080546001600160a01b0385811691161415612c415750600554612d62565b60015b6005548111612d60576000818152600c60208181526040808420815161024081018352815481526001820154818501526002820154818401526003820154606082015260048201546080820152600582015460a082015260068083015460c0830152600783015460e08301526008830154610100830152600980840154610120840152600a840154610140840152600b84015461016084015295830154610180830152600d8301546101a0830152600e8301546101c0830152600f8301546101e0830152601083015461020083015260119092015461022082019081526001600160a01b038c1687529490935293209092015490511415612d4d5782612d49816144c4565b9350505b5080612d58816144c4565b915050612c44565b505b60008167ffffffffffffffff811115612d7d57612d7d613702565b604051908082528060200260200182016040528015612e3c57816020015b604080516102408101825260008082526020808301829052928201819052606082018190526080820181905260a0820181905260c0820181905260e08201819052610100820181905261012082018190526101408201819052610160820181905261018082018190526101a082018190526101c082018190526101e0820181905261020082018190526102208201528252600019909201910181612d9b5790505b5060008054919250906001600160a01b0387811691161415612f795760015b6005548111612f7357600c60008281526020019081526020016000206040518061024001604052908160008201548152602001600182015481526020016002820154815260200160038201548152602001600482015481526020016005820154815260200160068201548152602001600782015481526020016008820154815260200160098201548152602001600a8201548152602001600b8201548152602001600c8201548152602001600d8201548152602001600e8201548152602001600f820154815260200160108201548152602001601182015481525050838380612f43906144c4565b945081518110612f5557612f556144ae565b60200260200101819052508080612f6b906144c4565b915050612e5b565b50612c06565b60015b60055481116130b4576000818152600c60208181526040808420815161024081018352815481526001820154818501526002820154818401526003820154606082015260048201546080820152600582015460a082015260068083015460c0830152600783015460e08301526008830154610100830152600980840154610120840152600a840154610140840152600b84015461016084015295830154610180830152600d8301546101a0830152600e8301546101c0830152600f8301546101e0830152601083015461020083015260119092015461022082019081526001600160a01b038e16875294909352932090920154905114156130a157808484613083816144c4565b955081518110613095576130956144ae565b60200260200101819052505b50806130ac816144c4565b915050612f7c565b5050949350505050565b6000546001600160a01b031633146130d557600080fd5b6001600160a01b038116600081815260096020908152604091829020600501805460ff1916600117905590519182527fa6625d2d26e786e2f473111bea4b2fcdbbf1863d883a2359989ce3a103d2972a9101610a2d565b6040805161028081018252600080825260208201819052918101829052606081018290526080810182905260a0810182905260c0810182905260e08101829052610100810182905261012081018290526101408101829052610160810182905261018081018290526101a081018290526101c081018290526101e08101829052610200810182905261022081018290526102408101829052610260810191909152604080516101c081018252600080825260208201819052918101829052606081018290526080810182905260a0810182905260c0810182905260e08101829052610100810182905261012081018290526101408101829052610160810182905261018081018290526101a0810191909152604080516101c081018252600080825260208201819052918101829052606081018290526080810182905260a0810182905260c0810182905260e08101829052610100810182905261012081018290526101408101829052610160810182905261018081018290526101a0810191909152600354600081116132bf57600080fd5b60035485111580156132d15750600085115b61331d5760405162461bcd60e51b815260206004820152601460248201527f436865636b2074686520646f6e6f72206964202100000000000000000000000060448201526064016128d8565b600a60008681526020019081526020016000206040518061028001604052908160008201548152602001600182015481526020016002820154815260200160038201548152602001600482015481526020016005820154815260200160068201548152602001600782015481526020016008820154815260200160098201548152602001600a8201548152602001600b8201548152602001600c8201548152602001600d8201548152602001600e8201548152602001600f8201548152602001601082015481526020016011820160009054906101000a900460ff1615151515815260200160128201548152602001601382015481525050935083600f60008661024001518152602001908152602001600020600f6000876102600151815260200190815260200160002081604051806101c001604052908160008201548152602001600182015481526020016002820154815260200160038201548152602001600482015481526020016005820154815260200160068201548152602001600782015481526020016008820154815260200160098201548152602001600a8201548152602001600b8201548152602001600c8201548152602001600d82015481525050915080604051806101c001604052908160008201548152602001600182015481526020016002820154815260200160038201548152602001600482015481526020016005820154815260200160068201548152602001600782015481526020016008820154815260200160098201548152602001600a8201548152602001600b8201548152602001600c8201548152602001600d820154815250509050935093509350509193909250565b60606001546000811161359e57600080fd5b600060015467ffffffffffffffff8111156135bb576135bb613702565b60405190808252806020026020018201604052801561360657816020015b60408051606081018252600080825260208083018290529282015282526000199092019101816135d95790505b509050600060015b60015481116119a5576000818152600b602090815260409182902082516060810184528154815260018201549281019290925260020154918101919091528383613657816144c4565b945081518110613669576136696144ae565b6020026020010181905250808061367f906144c4565b91505061360e565b60008183145b9392505050565b602080825282518282018190526000919060409081850190868401855b828110156136f55781518051855286810151878601528581015186860152606080820151908601526080908101519085015260a090930192908501906001016136b1565b5091979650505050505050565b634e487b7160e01b600052604160045260246000fd5b604051610280810167ffffffffffffffff8111828210171561374a57634e487b7160e01b600052604160045260246000fd5b60405290565b604051610240810167ffffffffffffffff8111828210171561374a57634e487b7160e01b600052604160045260246000fd5b6040516101c0810167ffffffffffffffff8111828210171561374a57634e487b7160e01b600052604160045260246000fd5b60405160e0810167ffffffffffffffff8111828210171561374a57634e487b7160e01b600052604160045260246000fd5b803580151581146137f557600080fd5b919050565b6000610280828403121561380d57600080fd5b613815613718565b823581526020808401359082015260408084013590820152606080840135908201526080808401359082015260a0808401359082015260c0808401359082015260e08084013590820152610100808401359082015261012080840135908201526101408084013590820152610160808401359082015261018080840135908201526101a080840135908201526101c080840135908201526101e0808401359082015261020080840135908201526102206138d08185016137e5565b908201526102408381013590820152610260928301359281019290925250919050565b600081518084526020808501945080840160005b838110156139b6576139a2878351805182526020808201519083015260408082015190830152606080820151908301526080808201519083015260a0808201519083015260c0808201519083015260e08082015190830152610100808201519083015261012080820151908301526101408082015190830152610160808201519083015261018080820151908301526101a090810151910152565b6101c0969096019590820190600101613907565b509495945050505050565b60208152600061368d60208301846138f3565b6000806000606084860312156139e957600080fd5b505081359360208301359350604090920135919050565b600060208284031215613a1257600080fd5b5035919050565b60006102408284031215613a2c57600080fd5b613a34613750565b823581526020808401359082015260408084013590820152606080840135908201526080808401359082015260a0808401359082015260c0808401359082015260e08084013590820152610100808401359082015261012080840135908201526101408084013590820152610160808401359082015261018080840135908201526101a080840135908201526101c080840135908201526101e080840135908201526102008084013590820152610220928301359281019290925250919050565b80356001600160a01b03811681146137f557600080fd5b60006101c08284031215613b1f57600080fd5b613b27613782565b9050813581526020820135602082015260408201356040820152606082013560608201526080820135608082015260a082013560a082015260c082013560c082015260e082013560e08201526101008083013581830152506101208083013581830152506101408083013581830152506101608083013581830152506101808083013581830152506101a080830135818301525092915050565b6000808284036102a0811215613bd657600080fd5b60e0811215613be457600080fd5b50613bed6137b4565b613bf684613af5565b815260208401356020820152604084013560408201526060840135606082015260808401356080820152613c2c60a085016137e5565b60a082015260c084810135908201529150613c4a8460e08501613b0c565b90509250929050565b60008060008060808587031215613c6957600080fd5b5050823594602084013594506040840135936060013592509050565b6102a08101613cde82856001600160a01b0381511682526020810151602083015260408101516040830152606081015160608301526080810151608083015260a0810151151560a083015260c081015160c08301525050565b61368d60e0830184805182526020808201519083015260408082015190830152606080820151908301526080808201519083015260a0808201519083015260c0808201519083015260e08082015190830152610100808201519083015261012080820151908301526101408082015190830152610160808201519083015261018080820151908301526101a090810151910152565b6020808252825182820181905260009190848201906040850190845b81811015613e8257613e6e838551805182526020808201519083015260408082015190830152606080820151908301526080808201519083015260a0808201519083015260c0808201519083015260e08082015190830152610100808201519083015261012080820151908301526101408082015190830152610160808201519083015261018080820151908301526101a080820151908301526101c080820151908301526101e08082015190830152610200808201519083015261022080820151151590830152610240808201519083015261026090810151910152565b928401926102809290920191600101613d8f565b50909695505050505050565b60008060408385031215613ea157600080fd5b82359150613c4a60208401613af5565b600081518084526020808501945080840160005b838110156139b657815180518852838101518489015260408082015190890152606080820151908901526080808201519089015260a09081015115159088015260c09096019590820190600101613ec5565b60006020808301818452808551808352604092508286019150828160051b8701018488016000805b8481101561408657603f198a8503018652825160e0613f8c868351805182526020810151602083015260408101516040830152606081015160608301526080810151151560808301525050565b898201518160a0880152613fa282880182613eb1565b928a015187840360c08901528051808552908c01938693508c0191505b808310156140715761405a828551805182526020808201519083015260408082015190830152606080820151908301526080808201519083015260a0808201519083015260c0808201519083015260e08082015190830152610100808201519083015261012080820151908301526101408082015190830152610160808201519083015261018080820151908301526101a090810151910152565b6101c0820191508b84019350600183019250613fbf565b50978a01979550505091870191600101613f3f565b50919998505050505050505050565b604080825283519082018190526000906020906060840190828701845b828110156141225761410f8483516001600160a01b0381511682526020810151602083015260408101516040830152606081015160608301526080810151608083015260a0810151151560a083015260c081015160c08301525050565b60e09390930192908401906001016140b2565b5050508381038285015261413681866138f3565b9695505050505050565b6020808252825182820181905260009190848201906040850190845b81811015613e825761419c838551805182526020810151602083015260408101516040830152606081015160608301526080810151151560808301525050565b9284019260a0929092019160010161415c565b600080604083850312156141c257600080fd5b50508035926020909101359150565b60208152600061368d6020830184613eb1565b825181526020808401519082015260408084015190820152606080840151908201526080808401519082015260a0808401519082015260c0808401519082015260e08084015190820152610100808401519082015261012080840151908201526101408084015190820152610160808401519082015261018080840151908201526101a080840151908201526101c080840151908201526101e0808401519082015261020080840151908201526102208084015190820152610400810182516102408301526020830151610260830152604083015161028083015260608301516102a083015260808301516102c083015260a08301516102e083015260c083015161030083015260e08301516103208301526101008301516103408301526101208301516103608301526101408301516103808301526101608301516103a08301526101808301516103c08301526101a08301516103e083015261368d565b60006020828403121561435557600080fd5b61368d82613af5565b6020808252825182820181905260009190848201906040850190845b81811015613e8257614441838551805182526020808201519083015260408082015190830152606080820151908301526080808201519083015260a0808201519083015260c0808201519083015260e08082015190830152610100808201519083015261012080820151908301526101408082015190830152610160808201519083015261018080820151908301526101a080820151908301526101c080820151908301526101e08082015190830152610200808201519083015261022090810151910152565b92840192610240929092019160010161437a565b600081518084526020808501945080840160005b838110156139b65781518051885283810151848901526040908101519088015260609096019590820190600101614469565b60208152600061368d6020830184614455565b634e487b7160e01b600052603260045260246000fd5b60006000198214156144e657634e487b7160e01b600052601160045260246000fd5b5060010190565b815181526020808301519082015260408083015190820152606080830151908201526080808301519082015260a0808301519082015260c0808301519082015260e08083015190820152610100808301519082015261012080830151908201526101408083015190820152610160808301519082015261018080830151908201526101a080830151908201526101c080830151908201526101e0808301519082015261020080830151908201526102208083015115159082015261024080830151908201526102608083015190820152610280810161202d565b600081518084526020808501945080840160005b838110156139b6578151875295820195908201906001016145db565b60808152600061460a60808301876145c7565b828103602084015261461c81876145c7565b9050828103604084015261463081866138f3565b905082810360608401526146448185614455565b979650505050505050565b828152610260810161368d6020830184805182526020808201519083015260408082015190830152606080820151908301526080808201519083015260a0808201519083015260c0808201519083015260e08082015190830152610100808201519083015261012080820151908301526101408082015190830152610160808201519083015261018080820151908301526101a080820151908301526101c080820151908301526101e0808201519083015261020080820151908301526102209081015191015256fea264697066735822122014e440f3873e9d512f66485a150853cd0429e3df3d2379efdba73fb5bb48376964736f6c634300080b0033",
  "immutableReferences": {},
  "source": "// SPDX-License-Identifier: MIT\r\npragma solidity >=0.4.22 <0.9.0;\r\n\r\ncontract DonationContract {\r\n    address admin;\r\n\r\n    // Restricted for only admin\r\n    modifier restricted() {\r\n        require(msg.sender == admin);\r\n        _;\r\n    }\r\n\r\n    // This modifier check that the the mapping has any key value or not\r\n    modifier checkAvailable(uint256 _IDX) {\r\n        require(_IDX > 0);\r\n        _;\r\n    }\r\n\r\n    // Contains all the organs with it's name and time\r\n    uint256 ORGAN_IDX = 0;\r\n    struct Organ {\r\n        uint256 id; // id\r\n        bytes32 organ_name; // Organ name i.e Kidney, Liver\r\n        uint256 valid_time; // Organ Available time in minuts\r\n    }\r\n\r\n    // This structure is for the requestor helps to display the organ that maps to the corresponding\r\n    struct RequestMatchOrgans {\r\n        RequestorOrgans requestorOrgans;\r\n        DonerOrgans[] matchOrgans;\r\n        Hospital[] matchHospital;\r\n    }\r\n\r\n    // contains all the organ that place by a doner and match by a requestor i.e organ placed table\r\n    // This map helps that a requesto conform a request for a matched organ\r\n    uint256 ORGAN_REQUEST_IDX = 0;\r\n    struct OrganRequest {\r\n        uint256 id; // id\r\n        uint256 requestor_organ_map_id; // The organs id that a request request\r\n        uint256 doner_organ_map_id; // The organ id that a doner donate\r\n        uint256 doner_map_id; // The doner id\r\n        uint256 requestor_map_id; // The requestor id\r\n    }\r\n\r\n    // Actual doner map/ table\r\n    // All the table has a idx that helps as a id of each data\r\n    // the idx is a incremental variable never decrement or duplicate\r\n    uint256 DONER_IDX = 0;\r\n    struct Doner {\r\n        uint256 id;\r\n        bytes32 fname;\r\n        bytes32 lname;\r\n        bytes32 email;\r\n        bytes32 dob;\r\n        uint256 mobile;\r\n        uint256 uidai;\r\n        uint256 age;\r\n        uint256 weight;\r\n        uint256 height;\r\n        uint256 bmi;\r\n        bytes32 blood_group;\r\n        bytes32 gender;\r\n        bytes32 address_line;\r\n        bytes32 state;\r\n        bytes32 district;\r\n        bytes32 postal_code;\r\n        bool demise;\r\n        uint256 register_hospital_id;\r\n        uint256 demise_hospital_id;\r\n    }\r\n\r\n    // The organs that a doner donate\r\n    uint256 DONER_ORGANS_IDX = 0;\r\n    struct DonerOrgans {\r\n        uint256 id;\r\n        uint256 doner_map_id;\r\n        uint256 organ_map_id;\r\n        bytes32 blood_group;\r\n        uint256 time;\r\n        bool available;\r\n    }\r\n\r\n    // Requestor structure\r\n    uint256 REQUESTOR_IDX = 0;\r\n    struct Requestor {\r\n        uint256 id;\r\n        bytes32 fname;\r\n        bytes32 lname;\r\n        bytes32 gender;\r\n        bytes32 dob;\r\n        uint256 age;\r\n        bytes32 email;\r\n        uint256 mobile;\r\n        uint256 uidai;\r\n        uint256 weight;\r\n        uint256 height;\r\n        uint256 bmi;\r\n        bytes32 blood_group;\r\n        bytes32 address_line;\r\n        bytes32 state;\r\n        bytes32 district;\r\n        bytes32 postal_code;\r\n        uint256 register_hospital_id;\r\n    }\r\n\r\n    // the organs that a requestor request\r\n    uint256 REQUESTOR_ORGANS_IDX = 0;\r\n    struct RequestorOrgans {\r\n        uint256 id;\r\n        uint256 requestor_map_id;\r\n        uint256 organ_map_id;\r\n        bytes32 blood_group;\r\n        bool transplanted;\r\n    }\r\n\r\n    // This is the user structure that contains all the user and also admin with it's role\r\n    // if the user is admin that there is no connection for hospital otherwise the user id\r\n    // will store in the hospital map\r\n    address[] USER_IDX_ARR; // store the inserted address\r\n    struct User {\r\n        address id;\r\n        bytes32 name;\r\n        bytes32 email;\r\n        bytes32 mobile;\r\n        bytes32 role;\r\n        bool verified;\r\n        uint256 hospital_id;\r\n    }\r\n\r\n    // The hospital containing all the hospital data\r\n    uint256 HOSPITAL_IDX = 0;\r\n    struct Hospital {\r\n        uint256 id;\r\n        bytes32 name;\r\n        bytes32 hospital_type; // private/ govt\r\n        bytes32 registration_number; // alpha numeric nuumber like 52ADE2585SDW\r\n        bytes32 address_line; // 32 charecter\r\n        bytes32 state; // 32 charecter\r\n        bytes32 district; // 32 charecter\r\n        bytes32 town; // 32 charecter\r\n        uint256 pincode; // 32 charecter\r\n        bytes32 telephone; // 32 charecter\r\n        bytes32 mobile; // 32 charecter\r\n        bytes32 emergency_mobile; // 32 charecter\r\n        bytes32 longitude; // 32 charecter later converted into flote\r\n        bytes32 latitude; // 32 charecter later converted into flote\r\n    }\r\n\r\n    mapping(address => User) user_map; // actual user map\r\n    mapping(uint256 => Doner) doner_map; // For mapping the doner function : getDoner\r\n    mapping(uint256 => Organ) organ_map; // All organs that are donatable function : getOrgans\r\n    mapping(uint256 => Requestor) requestor_map; // For mapping the requestor function : getRequestor\r\n    mapping(uint256 => DonerOrgans) doner_organ_map; // All the organs that a doner donetes function : getDonerOrgans\r\n    mapping(uint256 => RequestorOrgans) requestor_organ_map; // All the organs that a requestor requests function : getRequestorOrgans\r\n    mapping(uint256 => Hospital) hospital_map; // All the hospitals function : getHospitals\r\n    mapping(uint256 => OrganRequest) organ_request_map; // all the requested placed organs function : getOrganRequestor\r\n\r\n    /**\r\n     |------------------------------------------------------------------------------------------------\r\n     | This is the constructor that run only when the a user deploy the contract this constructor \r\n     | take sone parameters that are,  \r\n     | @param name name of the admin\r\n     | @param email email of the admin\r\n     | @param mobile mobile number of the admin \r\n     | All the paremetes are bytes32 if pass string not work\r\n     |------------------------------------------------------------------------------------------------\r\n    */\r\n    constructor(\r\n        bytes32 name,\r\n        bytes32 email,\r\n        bytes32 mobile\r\n    ) {\r\n        admin = msg.sender;\r\n        User memory user = User(admin, name, email, mobile, \"admin\", true, 0);\r\n        // creating all the pre defined organs and its lifespan\r\n        organ_map[ORGAN_IDX + 1] = Organ(ORGAN_IDX + 1, \"Lung\", 4);\r\n        ORGAN_IDX++;\r\n        organ_map[ORGAN_IDX + 1] = Organ(ORGAN_IDX + 1, \"Heart\", 4);\r\n        ORGAN_IDX++;\r\n        organ_map[ORGAN_IDX + 1] = Organ(ORGAN_IDX + 1, \"Liver\", 24);\r\n        ORGAN_IDX++;\r\n        organ_map[ORGAN_IDX + 1] = Organ(ORGAN_IDX + 1, \"Pancreas\", 24);\r\n        ORGAN_IDX++;\r\n        organ_map[ORGAN_IDX + 1] = Organ(ORGAN_IDX + 1, \"Kidney\", 72);\r\n        ORGAN_IDX++;\r\n        organ_map[ORGAN_IDX + 1] = Organ(ORGAN_IDX + 1, \"Cornea\", 14 * 24);\r\n        ORGAN_IDX++;\r\n        organ_map[ORGAN_IDX + 1] = Organ(ORGAN_IDX + 1, \"Bones\", 5 * 365 * 24);\r\n        ORGAN_IDX++;\r\n        organ_map[ORGAN_IDX + 1] = Organ(ORGAN_IDX + 1, \"Skin\", 5 * 365 * 24);\r\n        ORGAN_IDX++;\r\n        organ_map[ORGAN_IDX + 1] = Organ(ORGAN_IDX + 1, \"Heart Valves\", 10 * 365 * 24);\r\n        ORGAN_IDX++;\r\n        USER_IDX_ARR.push(admin);\r\n        user.id = admin;\r\n        user_map[admin] = user;\r\n    }\r\n\r\n    event Register(User _user, Hospital _hospital);\r\n    event Register(Doner _doner);\r\n    event Register(Organ _organ);\r\n    event Register(uint256 id, Requestor _requestor);\r\n    event Register(DonerOrgans _donerOrgans);\r\n    event Register(RequestorOrgans _requestorOrgans);\r\n    event UserVerified(address _address);\r\n    event DonerDemise(\r\n        uint256[] _hospitals,\r\n        uint256[] _users,\r\n        Hospital[] _matchedHospitals,\r\n        Organ[] _matchedOrgans\r\n    );\r\n    event RequestForOrgan(OrganRequest _organ_request);\r\n\r\n    /**\r\n     |------------------------------------------------------------------------------------------------\r\n     | Helps to get all the hospitals and returns an array\r\n     | @return _hospital array of hospitals\r\n     |------------------------------------------------------------------------------------------------\r\n    */\r\n\r\n    function getHospitals() public view returns (Hospital[] memory _hospital) {\r\n        _hospital = new Hospital[](HOSPITAL_IDX);\r\n        uint256 j = 0;\r\n        for (uint256 i = 1; i <= HOSPITAL_IDX; i++) _hospital[j++] = hospital_map[i];\r\n        return _hospital;\r\n    }\r\n\r\n    /**\r\n     |------------------------------------------------------------------------------------------------\r\n     | Helps to get all the prelisted organs and requrns an array\r\n     | @return organs array of prelisted organs\r\n     |------------------------------------------------------------------------------------------------\r\n     */\r\n    function getOrgans() public view checkAvailable(ORGAN_IDX) returns (Organ[] memory) {\r\n        Organ[] memory organs = new Organ[](ORGAN_IDX);\r\n        uint256 j = 0;\r\n        for (uint256 i = 1; i <= ORGAN_IDX; i++) organs[j++] = organ_map[i];\r\n        return organs;\r\n    }\r\n\r\n    /**\r\n     |------------------------------------------------------------------------------------------------\r\n     | Helps to find the organs that match to a requestor with the doner with all the conditions\r\n     | for the particular doner. This function takes two parameters\r\n     | @param _id The id of the requestor\r\n     | @param _add The address \r\n     | @return _requestMatchOrgans all the match organs array \r\n     |------------------------------------------------------------------------------------------------\r\n     */\r\n    function getRequestorOrgans(uint256 _id, address _add) public view returns (RequestMatchOrgans[] memory) {\r\n        uint256 counter = 0;\r\n        for (uint256 i = 1; i <= REQUESTOR_ORGANS_IDX; i++) {\r\n            // 1 check that the requestor is belong to the hospital that register\r\n            // 2 check that the requesot id is equal\r\n            if (\r\n                (requestor_map[requestor_organ_map[i].requestor_map_id].register_hospital_id ==\r\n                    user_map[_add].hospital_id) && (requestor_organ_map[i].requestor_map_id == _id)\r\n            ) {\r\n                counter++;\r\n            }\r\n        }\r\n        RequestMatchOrgans[] memory _requestMatchOrgans = new RequestMatchOrgans[](counter);\r\n\r\n        // looping through the organs that are for the particular requestor\r\n        uint256 j = 0;\r\n        for (uint256 i = 1; i <= REQUESTOR_ORGANS_IDX; i++) {\r\n            // check that the requestor organ id is equal to the requstoer id\r\n            if (\r\n                (requestor_map[requestor_organ_map[i].requestor_map_id].register_hospital_id ==\r\n                    user_map[_add].hospital_id) && (requestor_organ_map[i].requestor_map_id == _id)\r\n            ) {\r\n                // store the matched organ\r\n                _requestMatchOrgans[j].requestorOrgans = requestor_organ_map[i];\r\n                // find the matching organs that available for the requestor organ\r\n                uint256 matchOrgansCount = 0; // count\r\n                for (uint256 k = 1; k <= DONER_ORGANS_IDX; k++) {\r\n                    // checking the organ is available\r\n                    if (doner_organ_map[k].available) {\r\n                        // mathc for the compatibilaty\r\n                        if (\r\n                            (doner_organ_map[k].organ_map_id == requestor_organ_map[i].organ_map_id) &&\r\n                            memcmp(doner_organ_map[k].blood_group, requestor_organ_map[i].blood_group)\r\n                        ) matchOrgansCount++;\r\n                    }\r\n                }\r\n                DonerOrgans[] memory matchOrgans = new DonerOrgans[](matchOrgansCount);\r\n                Hospital[] memory matchHospitals = new Hospital[](matchOrgansCount);\r\n                // checking the orgns matched or not\r\n                uint256 l = 0;\r\n                for (uint256 k = 1; k <= DONER_ORGANS_IDX; k++) {\r\n                    // checking the organ is available\r\n                    if (doner_organ_map[k].available) {\r\n                        // mathc for the compatibilaty\r\n                        if (\r\n                            (doner_organ_map[k].organ_map_id == requestor_organ_map[i].organ_map_id) &&\r\n                            memcmp(doner_organ_map[k].blood_group, requestor_organ_map[i].blood_group)\r\n                        ) {\r\n                            matchOrgans[l] = doner_organ_map[k];\r\n                            matchHospitals[l] = hospital_map[\r\n                                doner_map[doner_organ_map[k].doner_map_id].demise_hospital_id\r\n                            ];\r\n                            l++;\r\n                        }\r\n                    }\r\n                }\r\n                _requestMatchOrgans[j].matchOrgans = matchOrgans;\r\n                _requestMatchOrgans[j].matchHospital = matchHospitals;\r\n                j++;\r\n            }\r\n        }\r\n\r\n        return _requestMatchOrgans;\r\n    }\r\n\r\n    /**\r\n     |------------------------------------------------------------------------------------------------\r\n     | Helps to get all the requestor organs for report\r\n     | @return _requestororgans all the match organs array \r\n     |------------------------------------------------------------------------------------------------\r\n     */\r\n    function getRequestorOrgans() public view returns (RequestorOrgans[] memory) {\r\n        uint256 j = 0;\r\n        RequestorOrgans[] memory _requestororgans = new RequestorOrgans[](REQUESTOR_ORGANS_IDX);\r\n        for (uint256 i = 1; i <= REQUESTOR_ORGANS_IDX; i++) {\r\n            _requestororgans[j++] = requestor_organ_map[i];\r\n        }\r\n        return _requestororgans;\r\n    }\r\n\r\n    /**\r\n     |------------------------------------------------------------------------------------------------\r\n     | Helps to register a organ that a requestor want\r\n     | @param _requestor_id requestor map id\r\n     | @param _organ_id organ id\r\n     | This function emit a event and this event catch by the browser\r\n     |------------------------------------------------------------------------------------------------\r\n     */\r\n    function registerOrganForRequestor(uint256 _requestor_id, uint256 _organ_id) public {\r\n        REQUESTOR_ORGANS_IDX++;\r\n        requestor_organ_map[REQUESTOR_ORGANS_IDX] = RequestorOrgans(\r\n            REQUESTOR_ORGANS_IDX,\r\n            _requestor_id,\r\n            _organ_id,\r\n            requestor_map[_requestor_id].blood_group,\r\n            false\r\n        );\r\n        emit Register(requestor_organ_map[REQUESTOR_ORGANS_IDX]);\r\n    }\r\n\r\n    /**\r\n     |------------------------------------------------------------------------------------------------\r\n     |  Helps to get the doner organs for a particular doner\r\n     |  @param _id doner id\r\n     |  @return _donerorgans array of doner organs\r\n     |------------------------------------------------------------------------------------------------\r\n     */\r\n    function getDonerOrgans(uint256 _id) public view returns (DonerOrgans[] memory) {\r\n        uint256 j = 0;\r\n        uint256 counter = 0;\r\n        for (uint256 i = 1; i <= DONER_ORGANS_IDX; i++) {\r\n            if (doner_organ_map[i].doner_map_id == _id) counter++;\r\n        }\r\n        DonerOrgans[] memory _donerorgans = new DonerOrgans[](counter);\r\n        for (uint256 i = 1; i <= DONER_ORGANS_IDX; i++) {\r\n            if (doner_organ_map[i].doner_map_id == _id) _donerorgans[j++] = doner_organ_map[i];\r\n        }\r\n        return _donerorgans;\r\n    }\r\n\r\n    /**\r\n     |------------------------------------------------------------------------------------------------\r\n     |  Helps to get all the doner organs for report\r\n     |  @return _donerorgans array of doner organs\r\n     |------------------------------------------------------------------------------------------------\r\n     */\r\n    function getDonerOrgans() public view returns (DonerOrgans[] memory) {\r\n        uint256 j = 0;\r\n        DonerOrgans[] memory _donerorgans = new DonerOrgans[](DONER_ORGANS_IDX);\r\n        for (uint256 i = 1; i <= DONER_ORGANS_IDX; i++) {\r\n            _donerorgans[j++] = doner_organ_map[i];\r\n        }\r\n        return _donerorgans;\r\n    }\r\n\r\n    /**\r\n     |------------------------------------------------------------------------------------------------\r\n     | Helps to register a organ for the requestor\r\n     | @param _doner_id doner map id\r\n     | @param _organ_id organ map id\r\n     | @param _time time in minute\r\n     | Fires an event \r\n     |------------------------------------------------------------------------------------------------\r\n     */\r\n    function registerOrganForDoner(\r\n        uint256 _doner_id,\r\n        uint256 _organ_id,\r\n        uint256 _time\r\n    ) public {\r\n        DONER_ORGANS_IDX++;\r\n        doner_organ_map[DONER_ORGANS_IDX] = DonerOrgans(\r\n            DONER_ORGANS_IDX,\r\n            _doner_id,\r\n            _organ_id,\r\n            doner_map[_doner_id].blood_group,\r\n            _time,\r\n            false\r\n        );\r\n\r\n        emit Register(doner_organ_map[DONER_ORGANS_IDX]);\r\n    }\r\n\r\n    /**\r\n     |------------------------------------------------------------------------------------------------\r\n     | Helps to register an user with its hsopital address, it also store the user and the hospital \r\n     | in the map and store the user address in the hospital to reference the user\r\n     | @param _user user structure\r\n     | @param _hospital hospital structure\r\n     | Fires an event\r\n     |------------------------------------------------------------------------------------------------\r\n     */\r\n    function registerUser(User memory _user, Hospital memory _hospital) public {\r\n        address user_address = msg.sender;\r\n        _user.role = \"user\";\r\n        _user.verified = false;\r\n        USER_IDX_ARR.push(user_address);\r\n        _user.id = user_address;\r\n        HOSPITAL_IDX++;\r\n        _user.hospital_id = HOSPITAL_IDX;\r\n        _hospital.id = HOSPITAL_IDX;\r\n        hospital_map[HOSPITAL_IDX] = _hospital;\r\n        user_map[user_address] = _user;\r\n        emit Register(_user, _hospital);\r\n    }\r\n\r\n    /**\r\n     |------------------------------------------------------------------------------------------------\r\n     | Helps to approved the user i.d set the verified flag to true for a user/hospital\r\n     | @param _address addredd of the user\r\n     | Fires an event helps to notify the verified user\r\n     |------------------------------------------------------------------------------------------------\r\n     */\r\n    function approveUser(address _address) public restricted {\r\n        user_map[_address].verified = true;\r\n        emit UserVerified(_address);\r\n    }\r\n\r\n    /**\r\n     |------------------------------------------------------------------------------------------------\r\n     | Helps to register an doner \r\n     | @param _doner doner structure\r\n     | Fires an event that help to return the doner id\r\n     |------------------------------------------------------------------------------------------------\r\n     */\r\n    function registerDoner(Doner memory _doner) public {\r\n        _doner.id = ++DONER_IDX;\r\n        _doner.demise = false;\r\n        _doner.register_hospital_id = user_map[msg.sender].hospital_id;\r\n        _doner.demise_hospital_id = 0;\r\n        doner_map[DONER_IDX] = _doner;\r\n        emit Register(_doner);\r\n    }\r\n\r\n    /**\r\n     |------------------------------------------------------------------------------------------------\r\n     | Helps to ge all the doner available\r\n     | @return doner array of doners\r\n     |------------------------------------------------------------------------------------------------\r\n     */\r\n    function getDoner() public view checkAvailable(DONER_IDX) returns (Doner[] memory) {\r\n        Doner[] memory doner = new Doner[](DONER_IDX);\r\n        uint256 j = 0;\r\n        for (uint256 i = 1; i <= DONER_IDX; i++) doner[j++] = doner_map[i];\r\n        return doner;\r\n    }\r\n\r\n    /**\r\n     |------------------------------------------------------------------------------------------------\r\n     | Helps to get a doner information by it's id\r\n     | @param id doner id\r\n     | return _doner, register_hospital, demise_hospital\r\n     |------------------------------------------------------------------------------------------------\r\n     */\r\n    function getDonerById(uint256 id)\r\n        public\r\n        view\r\n        checkAvailable(DONER_IDX)\r\n        returns (\r\n            Doner memory _doner,\r\n            Hospital memory _request_hospital,\r\n            Hospital memory _demise_hospital\r\n        )\r\n    {\r\n        require(id <= DONER_IDX && id > 0, \"Check the donor id !\");\r\n        _doner = doner_map[id];\r\n\r\n        return (_doner, hospital_map[_doner.register_hospital_id], hospital_map[_doner.demise_hospital_id]);\r\n    }\r\n\r\n    /**\r\n     |------------------------------------------------------------------------------------------------\r\n     | When a doner demise then this helps to register it's demise hospital and add the avilable to \r\n     | for all organ.\r\n     | @param doner_id doner map id\r\n     | Fires an event that notify the matched hospital that organs is availeble\r\n     |------------------------------------------------------------------------------------------------\r\n     */\r\n    function donerDemise(uint256 doner_id) public {\r\n        // set that the doner is demise\r\n        doner_map[doner_id].demise = true;\r\n        doner_map[doner_id].demise_hospital_id = user_map[msg.sender].hospital_id;\r\n        // set all organs availavle to true\r\n        for (uint256 i = 1; i <= DONER_ORGANS_IDX; i++) {\r\n            if (doner_organ_map[i].doner_map_id == doner_id) {\r\n                doner_organ_map[i].available = true;\r\n            }\r\n        }\r\n        // getting the count of matched hospitals\r\n        uint256 counter = 0;\r\n        for (uint256 i = 1; i <= REQUESTOR_ORGANS_IDX; i++) {\r\n            for (uint256 k = 1; k <= DONER_ORGANS_IDX; k++) {\r\n                if (doner_organ_map[k].doner_map_id == doner_id) {\r\n                    if (\r\n                        (doner_organ_map[k].organ_map_id == requestor_organ_map[i].organ_map_id) &&\r\n                        memcmp(doner_organ_map[k].blood_group, requestor_organ_map[i].blood_group)\r\n                    ) {\r\n                        counter++;\r\n                    }\r\n                }\r\n            }\r\n        }\r\n        // for matched hospitals id\r\n        uint256[] memory _hospitals = new uint256[](counter);\r\n        // matched user id\r\n        uint256[] memory _users = new uint256[](counter);\r\n        // matched hospital details\r\n        Hospital[] memory _matchedHospitals = new Hospital[](counter);\r\n        // matched organ details\r\n        Organ[] memory _matchedOrgans = new Organ[](counter);\r\n\r\n        // getting the match details\r\n        uint256 j = 0;\r\n        for (uint256 i = 1; i <= REQUESTOR_ORGANS_IDX; i++) {\r\n            for (uint256 k = 1; k <= DONER_ORGANS_IDX; k++) {\r\n                if (doner_organ_map[k].doner_map_id == doner_id) {\r\n                    if (\r\n                        (doner_organ_map[k].organ_map_id == requestor_organ_map[i].organ_map_id) &&\r\n                        memcmp(doner_organ_map[k].blood_group, requestor_organ_map[i].blood_group)\r\n                    ) {\r\n                        _hospitals[j] = requestor_map[requestor_organ_map[i].requestor_map_id]\r\n                            .register_hospital_id;\r\n                        _users[j] = requestor_organ_map[i].requestor_map_id;\r\n                        _matchedHospitals[j] = hospital_map[\r\n                            doner_map[doner_organ_map[k].doner_map_id].demise_hospital_id\r\n                        ];\r\n                        _matchedOrgans[j] = organ_map[doner_organ_map[k].organ_map_id];\r\n                        j++;\r\n                    }\r\n                }\r\n            }\r\n        }\r\n        emit DonerDemise(_hospitals, _users, _matchedHospitals, _matchedOrgans);\r\n    }\r\n\r\n    /**\r\n     |------------------------------------------------------------------------------------------------\r\n     | Helps to register a requestor\r\n     | @param _requestor requestor structure\r\n     | Fires an event\r\n     |------------------------------------------------------------------------------------------------\r\n     */\r\n    function registerRequestor(Requestor memory _requestor) public {\r\n        _requestor.id = ++REQUESTOR_IDX;\r\n        _requestor.register_hospital_id = user_map[msg.sender].hospital_id;\r\n        requestor_map[REQUESTOR_IDX] = _requestor;\r\n        emit Register(REQUESTOR_IDX, _requestor);\r\n    }\r\n\r\n    /**\r\n     |------------------------------------------------------------------------------------------------\r\n     |  Helps to get the requestor \r\n     |  @param _id requestor id\r\n     |  @return requestor array of requestor \r\n     |------------------------------------------------------------------------------------------------\r\n     */\r\n    function getRequestor(address _id)\r\n        public\r\n        view\r\n        checkAvailable(REQUESTOR_IDX)\r\n        returns (Requestor[] memory)\r\n    {\r\n        // find the count that match the _id\r\n        uint256 counter = 0;\r\n        if (_id == admin) {\r\n            counter = REQUESTOR_IDX;\r\n        } else {\r\n            for (uint256 i = 1; i <= REQUESTOR_IDX; i++) {\r\n                Requestor memory _requestor = requestor_map[i];\r\n                if (_requestor.register_hospital_id == user_map[_id].hospital_id) counter++;\r\n            }\r\n        }\r\n        // getting the data\r\n        Requestor[] memory requestor = new Requestor[](counter);\r\n        uint256 j = 0;\r\n        if (_id == admin) {\r\n            for (uint256 i = 1; i <= REQUESTOR_IDX; i++) {\r\n                requestor[j++] = requestor_map[i];\r\n            }\r\n        } else {\r\n            for (uint256 i = 1; i <= REQUESTOR_IDX; i++) {\r\n                Requestor memory _requestor = requestor_map[i];\r\n                if (_requestor.register_hospital_id == user_map[_id].hospital_id) requestor[j++] = _requestor;\r\n            }\r\n        }\r\n        return requestor;\r\n    }\r\n\r\n    /**\r\n     |------------------------------------------------------------------------------------------------\r\n     | Helps to get a requestor information by it's id\r\n     | @param id requestor id\r\n     | return _requestor, register_hospital\r\n     |------------------------------------------------------------------------------------------------\r\n     */\r\n    function getRequestorById(uint256 id)\r\n        public\r\n        view\r\n        checkAvailable(REQUESTOR_IDX)\r\n        returns (Requestor memory _requestor, Hospital memory _request_hospital)\r\n    {\r\n        require(id <= REQUESTOR_IDX && id > 0, \"Check the requestor id !\");\r\n        _requestor = requestor_map[id];\r\n        return (_requestor, hospital_map[_requestor.register_hospital_id]);\r\n    }\r\n\r\n    /**\r\n     |------------------------------------------------------------------------------------------------\r\n     | Helps to place the organ i.e place order the organ that availavle and matched the doner and the\r\n     | requestor, this function take four parameters.\r\n     | @param _requestor_organ_map_id requestor organ id\r\n     | @param _doner_organ_map_id doner organ id\r\n     | @param _doner_map_id doner id\r\n     | @param _requestor_map_id requesor id\r\n     | Fires an event that notify the doner hospital that a organ is placed\r\n     |------------------------------------------------------------------------------------------------\r\n     */\r\n\r\n    function requestForOrgan(\r\n        uint256 _requestor_organ_map_id,\r\n        uint256 _doner_organ_map_id,\r\n        uint256 _doner_map_id,\r\n        uint256 _requestor_map_id\r\n    ) public {\r\n        require(doner_organ_map[_doner_organ_map_id].available);\r\n        ORGAN_REQUEST_IDX++;\r\n        organ_request_map[ORGAN_REQUEST_IDX].id = ORGAN_REQUEST_IDX;\r\n        organ_request_map[ORGAN_REQUEST_IDX].requestor_organ_map_id = _requestor_organ_map_id;\r\n        organ_request_map[ORGAN_REQUEST_IDX].doner_organ_map_id = _doner_organ_map_id;\r\n        organ_request_map[ORGAN_REQUEST_IDX].doner_map_id = _doner_map_id;\r\n        organ_request_map[ORGAN_REQUEST_IDX].requestor_map_id = _requestor_map_id;\r\n        requestor_organ_map[_requestor_organ_map_id].transplanted = true;\r\n        doner_organ_map[_doner_organ_map_id].available = false;\r\n\r\n        emit RequestForOrgan(organ_request_map[ORGAN_REQUEST_IDX]);\r\n    }\r\n\r\n    /**\r\n     |------------------------------------------------------------------------------------------------\r\n     | Helps to get the all request that are placed\r\n     | @return _organ_request all the requested organ\r\n     |------------------------------------------------------------------------------------------------\r\n     */\r\n\r\n    function getOrganRequestor() public view returns (OrganRequest[] memory _organ_request) {\r\n        uint256 j = 0;\r\n        _organ_request = new OrganRequest[](ORGAN_REQUEST_IDX);\r\n        for (uint256 i = 1; i <= ORGAN_REQUEST_IDX; i++) {\r\n            _organ_request[j] = organ_request_map[i];\r\n            j++;\r\n        }\r\n        return _organ_request;\r\n    }\r\n\r\n    /**\r\n     |------------------------------------------------------------------------------------------------\r\n     | Helps to change the status transplanted\r\n     | @param _requestor_organ_map_id all the requested organ\r\n     |------------------------------------------------------------------------------------------------\r\n     */\r\n\r\n    function transplanted(uint256 _requestor_organ_map_id) public {\r\n        requestor_organ_map[_requestor_organ_map_id].transplanted = true;\r\n    }\r\n\r\n    /**\r\n     |------------------------------------------------------------------------------------------------\r\n     | Helps to get the user with the help of caller address\r\n     | return user, hospital\r\n     |------------------------------------------------------------------------------------------------\r\n     */\r\n    function getUser() public view returns (User memory user, Hospital memory hospital) {\r\n        user = user_map[msg.sender];\r\n        hospital = hospital_map[user.hospital_id];\r\n        return (user, hospital);\r\n    }\r\n\r\n    /**\r\n     |------------------------------------------------------------------------------------------------\r\n     | Helps to get all the unverified user with it's hospital\r\n     | return user, hospital array\r\n     |------------------------------------------------------------------------------------------------\r\n     */\r\n    function getUnverifiedUser()\r\n        public\r\n        view\r\n        restricted\r\n        returns (User[] memory users, Hospital[] memory hospitals)\r\n    {\r\n        // find the count for the users\r\n        uint256 counter = 0;\r\n        for (uint256 i = 0; i < USER_IDX_ARR.length; i++) {\r\n            User memory item = user_map[USER_IDX_ARR[i]];\r\n            if (!item.verified) counter++;\r\n        }\r\n        // get the user\r\n        users = new User[](counter);\r\n        hospitals = new Hospital[](counter);\r\n        uint256 j = 0;\r\n        for (uint256 i = 0; i < USER_IDX_ARR.length; i++) {\r\n            User memory item = user_map[USER_IDX_ARR[i]];\r\n            if (!item.verified) {\r\n                users[j] = item;\r\n                hospitals[j] = hospital_map[item.hospital_id];\r\n                j++;\r\n            }\r\n        }\r\n        return (users, hospitals);\r\n    }\r\n\r\n    /**\r\n     |------------------------------------------------------------------------------------------------\r\n     | Helps to compair two bye\r\n     | @param a first byte\r\n     | @param b second byte\r\n     | @return boolean\r\n     |------------------------------------------------------------------------------------------------\r\n     */\r\n\r\n    function memcmp(bytes32 a, bytes32 b) internal pure returns (bool) {\r\n        return (a.length == b.length) && (a == b);\r\n    }\r\n}\r\n",
  "sourcePath": "C:\\Users\\SOUMEN\\Desktop\\organ-donation-dapp\\contracts\\DonationContract.sol",
  "compiler": {
    "name": "solc",
    "version": "0.8.11+commit.d7f03943.Emscripten.clang"
  },
  "schemaVersion": "3.4.5",
  "updatedAt": "2022-06-13T17:26:08.525Z",
  "networkType": "ethereum",
  "devdoc": {
    "kind": "dev",
    "methods": {
      "approveUser(address)": {
        "params": {
          "_address": "addredd of the user | Fires an event helps to notify the verified user |------------------------------------------------------------------------------------------------"
        }
      },
      "constructor": {
        "params": {
          "email": "email of the admin",
          "mobile": "mobile number of the admin  | All the paremetes are bytes32 if pass string not work |------------------------------------------------------------------------------------------------",
          "name": "name of the admin"
        }
      },
      "donerDemise(uint256)": {
        "params": {
          "doner_id": "doner map id | Fires an event that notify the matched hospital that organs is availeble |------------------------------------------------------------------------------------------------"
        }
      },
      "getDoner()": {
        "returns": {
          "_0": "doner array of doners |------------------------------------------------------------------------------------------------"
        }
      },
      "getDonerById(uint256)": {
        "params": {
          "id": "doner id | return _doner, register_hospital, demise_hospital |------------------------------------------------------------------------------------------------"
        }
      },
      "getDonerOrgans()": {
        "returns": {
          "_0": "_donerorgans array of doner organs |------------------------------------------------------------------------------------------------"
        }
      },
      "getDonerOrgans(uint256)": {
        "params": {
          "_id": "doner id"
        },
        "returns": {
          "_0": "_donerorgans array of doner organs |------------------------------------------------------------------------------------------------"
        }
      },
      "getHospitals()": {
        "returns": {
          "_hospital": "array of hospitals |------------------------------------------------------------------------------------------------"
        }
      },
      "getOrganRequestor()": {
        "returns": {
          "_organ_request": "all the requested organ |------------------------------------------------------------------------------------------------"
        }
      },
      "getOrgans()": {
        "returns": {
          "_0": "organs array of prelisted organs |------------------------------------------------------------------------------------------------"
        }
      },
      "getRequestor(address)": {
        "params": {
          "_id": "requestor id"
        },
        "returns": {
          "_0": "requestor array of requestor  |------------------------------------------------------------------------------------------------"
        }
      },
      "getRequestorById(uint256)": {
        "params": {
          "id": "requestor id | return _requestor, register_hospital |------------------------------------------------------------------------------------------------"
        }
      },
      "getRequestorOrgans()": {
        "returns": {
          "_0": "_requestororgans all the match organs array  |------------------------------------------------------------------------------------------------"
        }
      },
      "getRequestorOrgans(uint256,address)": {
        "params": {
          "_add": "The address ",
          "_id": "The id of the requestor"
        },
        "returns": {
          "_0": "_requestMatchOrgans all the match organs array  |------------------------------------------------------------------------------------------------"
        }
      },
      "registerDoner((uint256,bytes32,bytes32,bytes32,bytes32,uint256,uint256,uint256,uint256,uint256,uint256,bytes32,bytes32,bytes32,bytes32,bytes32,bytes32,bool,uint256,uint256))": {
        "params": {
          "_doner": "doner structure | Fires an event that help to return the doner id |------------------------------------------------------------------------------------------------"
        }
      },
      "registerOrganForDoner(uint256,uint256,uint256)": {
        "params": {
          "_doner_id": "doner map id",
          "_organ_id": "organ map id",
          "_time": "time in minute | Fires an event  |------------------------------------------------------------------------------------------------"
        }
      },
      "registerOrganForRequestor(uint256,uint256)": {
        "params": {
          "_organ_id": "organ id | This function emit a event and this event catch by the browser |------------------------------------------------------------------------------------------------",
          "_requestor_id": "requestor map id"
        }
      },
      "registerRequestor((uint256,bytes32,bytes32,bytes32,bytes32,uint256,bytes32,uint256,uint256,uint256,uint256,uint256,bytes32,bytes32,bytes32,bytes32,bytes32,uint256))": {
        "params": {
          "_requestor": "requestor structure | Fires an event |------------------------------------------------------------------------------------------------"
        }
      },
      "registerUser((address,bytes32,bytes32,bytes32,bytes32,bool,uint256),(uint256,bytes32,bytes32,bytes32,bytes32,bytes32,bytes32,bytes32,uint256,bytes32,bytes32,bytes32,bytes32,bytes32))": {
        "params": {
          "_hospital": "hospital structure | Fires an event |------------------------------------------------------------------------------------------------",
          "_user": "user structure"
        }
      },
      "requestForOrgan(uint256,uint256,uint256,uint256)": {
        "params": {
          "_doner_map_id": "doner id",
          "_doner_organ_map_id": "doner organ id",
          "_requestor_map_id": "requesor id | Fires an event that notify the doner hospital that a organ is placed |------------------------------------------------------------------------------------------------",
          "_requestor_organ_map_id": "requestor organ id"
        }
      },
      "transplanted(uint256)": {
        "params": {
          "_requestor_organ_map_id": "all the requested organ |------------------------------------------------------------------------------------------------"
        }
      }
    },
    "version": 1
  },
  "userdoc": {
    "kind": "user",
    "methods": {
      "approveUser(address)": {
        "notice": "|------------------------------------------------------------------------------------------------ | Helps to approved the user i.d set the verified flag to true for a user/hospital"
      },
      "constructor": {
        "notice": "|------------------------------------------------------------------------------------------------ | This is the constructor that run only when the a user deploy the contract this constructor  | take sone parameters that are,  "
      },
      "donerDemise(uint256)": {
        "notice": "|------------------------------------------------------------------------------------------------ | When a doner demise then this helps to register it's demise hospital and add the avilable to  | for all organ."
      },
      "getDoner()": {
        "notice": "|------------------------------------------------------------------------------------------------ | Helps to ge all the doner available"
      },
      "getDonerById(uint256)": {
        "notice": "|------------------------------------------------------------------------------------------------ | Helps to get a doner information by it's id"
      },
      "getDonerOrgans()": {
        "notice": "|------------------------------------------------------------------------------------------------ |  Helps to get all the doner organs for report"
      },
      "getDonerOrgans(uint256)": {
        "notice": "|------------------------------------------------------------------------------------------------ |  Helps to get the doner organs for a particular doner"
      },
      "getHospitals()": {
        "notice": "|------------------------------------------------------------------------------------------------ | Helps to get all the hospitals and returns an array"
      },
      "getOrganRequestor()": {
        "notice": "|------------------------------------------------------------------------------------------------ | Helps to get the all request that are placed"
      },
      "getOrgans()": {
        "notice": "|------------------------------------------------------------------------------------------------ | Helps to get all the prelisted organs and requrns an array"
      },
      "getRequestor(address)": {
        "notice": "|------------------------------------------------------------------------------------------------ |  Helps to get the requestor "
      },
      "getRequestorById(uint256)": {
        "notice": "|------------------------------------------------------------------------------------------------ | Helps to get a requestor information by it's id"
      },
      "getRequestorOrgans()": {
        "notice": "|------------------------------------------------------------------------------------------------ | Helps to get all the requestor organs for report"
      },
      "getRequestorOrgans(uint256,address)": {
        "notice": "|------------------------------------------------------------------------------------------------ | Helps to find the organs that match to a requestor with the doner with all the conditions | for the particular doner. This function takes two parameters"
      },
      "getUnverifiedUser()": {
        "notice": "|------------------------------------------------------------------------------------------------ | Helps to get all the unverified user with it's hospital | return user, hospital array |------------------------------------------------------------------------------------------------"
      },
      "getUser()": {
        "notice": "|------------------------------------------------------------------------------------------------ | Helps to get the user with the help of caller address | return user, hospital |------------------------------------------------------------------------------------------------"
      },
      "registerDoner((uint256,bytes32,bytes32,bytes32,bytes32,uint256,uint256,uint256,uint256,uint256,uint256,bytes32,bytes32,bytes32,bytes32,bytes32,bytes32,bool,uint256,uint256))": {
        "notice": "|------------------------------------------------------------------------------------------------ | Helps to register an doner "
      },
      "registerOrganForDoner(uint256,uint256,uint256)": {
        "notice": "|------------------------------------------------------------------------------------------------ | Helps to register a organ for the requestor"
      },
      "registerOrganForRequestor(uint256,uint256)": {
        "notice": "|------------------------------------------------------------------------------------------------ | Helps to register a organ that a requestor want"
      },
      "registerRequestor((uint256,bytes32,bytes32,bytes32,bytes32,uint256,bytes32,uint256,uint256,uint256,uint256,uint256,bytes32,bytes32,bytes32,bytes32,bytes32,uint256))": {
        "notice": "|------------------------------------------------------------------------------------------------ | Helps to register a requestor"
      },
      "registerUser((address,bytes32,bytes32,bytes32,bytes32,bool,uint256),(uint256,bytes32,bytes32,bytes32,bytes32,bytes32,bytes32,bytes32,uint256,bytes32,bytes32,bytes32,bytes32,bytes32))": {
        "notice": "|------------------------------------------------------------------------------------------------ | Helps to register an user with its hsopital address, it also store the user and the hospital  | in the map and store the user address in the hospital to reference the user"
      },
      "requestForOrgan(uint256,uint256,uint256,uint256)": {
        "notice": "|------------------------------------------------------------------------------------------------ | Helps to place the organ i.e place order the organ that availavle and matched the doner and the | requestor, this function take four parameters."
      },
      "transplanted(uint256)": {
        "notice": "|------------------------------------------------------------------------------------------------ | Helps to change the status transplanted"
      }
    },
    "version": 1
  }
}